:100000000C9487000C94A4000C94A4000C94A400FD
:100010000C94A4000C94A4000C94A4000C94A400D0
:100020000C94A4000C94A4000C94A4000C94A400C0
:100030000C94A4000C94A4000C94A4000C94A400B0
:100040000C94A4000C9492020C94A4000C94FE0254
:100050000C94A4000C94A4000C94A4000C94A40090
:100060000C94A4000C94A4000C9495030C94A4008C
:100070000C9401040C94A4000C94A4000C94980417
:100080000C94A4000C9404050C94A4000C94A400FB
:1000900020010A010C010A010E010A0110010A01E6
:1000A00012010A0114010A010A010A0116010A01DA
:1000B0000A010A010A010A010A010A0118010A01DA
:1000C0000A010A010A010A010A010A011A010A01C8
:1000D0000A010A010A010A010A010A010A010A01C8
:1000E0000A010A010A010A010A010A011C010A01A6
:1000F0000A010A010A010A010A010A010A010A01A8
:100100000A010A010A010A010A010A011E01112459
:100110001FBECFEFCDBFDFE3DEBF18E2A0E0B8E245
:10012000E7E7F6E102C005900D92A83EB107D9F7C6
:1001300029E2A8EEB8E201C01D92AE30B207E1F7A5
:100140000E949C080C941F0B0C940000CF93DF932B
:10015000CDB7DEB76D97CDBFDEBF8DE0E2E4F6E54B
:10016000DE01119601900D928A95E1F780E1EFE4AE
:10017000F6E5DE011E9601900D928A95E1F7A0E664
:10018000B0E0EC91E370F0E0EE0FFF1FEE0FFF1F09
:1001900021E030E02C0F3D1FE20FF31F65857685CF
:1001A0008785908911962C9120FF1BC0E0916100FA
:1001B000EE71F0E0F595E79521E030E02C0F3D1F62
:1001C000E20FF31F208130E040E050E00E94CD09B3
:1001D0002093E8283093E9284093EA285093EB28AD
:1001E00008C06093E8287093E9288093EA289093E8
:1001F000EB286D96CDBFDEBFDF91CF910895462FDE
:1002000050E0FA013297EF33F10520F4E85BFF4F3D
:100210000C94EF092EEF15C023E013C021E111C0AB
:1002200025E00FC023E10DC025E10BC027E009C088
:1002300027E107C029E005C029E103C02BE001C088
:1002400021E0882319F0813081F00895E0E6F0E0A4
:10025000848D8F7C836198ED94BF848F0E94A6006B
:100260008091630086FFFCCF0895E0E6F0E0908186
:100270009F7788ED84BF908384BF218384BF828170
:100280008E7F82830E94A600809163008031E1F717
:100290000895FC019081292F2F7192959695977062
:1002A00081818370880F880F880F982B492F50E029
:1002B00030E0241B350B205E3F4F22303105B4F077
:1002C0009F5F292F2F719295990F907E80818F715A
:1002D000982B908326952695269591819C7F922B2D
:1002E0009183E40FF51F638381E0089580E0089512
:1002F000FC018081282F2F718295869587709181CE
:100300009370990F990F990F892B281779F081E035
:10031000820F982F9F718081807E892B8083E20FCE
:10032000F11D8381FB01808381E0089580E00895C1
:10033000CF92DF92EF92FF920F931F93CF93DF93B1
:100340008C01EB018881282F2F7130E0B9016D5F9E
:100350007F4F6C0F7D1F982F92959695977089818E
:100360008370880F880F880F892B90E0821B930B76
:1003700080968F719078992324F40197806E9F6FF7
:100380000196F42E841708F4F82E8A8190E0AC01CF
:10039000421B530B8F2D90E0481759070CF4CA01EC
:1003A000EF2CE81A6C01DD24A601C8010E94160B8F
:1003B000BE016D5F7F4F4E2D50E0C8018C0D9D1D1D
:1003C0000E94160B8881482F4F714F0D4F71807E10
:1003D000F82EF42AF882DF91CF911F910F91FF90B0
:1003E000EF90DF90CF900895CF93DF93FC01908141
:1003F000892F8F7192959695977021812370220F86
:10040000220F220F292B90E0821B91094F968F71AA
:100410009078992324F40197806E9F6F0196B82FEE
:10042000A0E026C05081252F229526952770318186
:10043000832F8370880F880F880F822B91E0980F8D
:10044000292F2F719295990F907E5F71952B908334
:10045000269526952695932F9C7F922B9183EB01D1
:10046000CA0FD11D9881EF01C80FD11D9B83AF5FCB
:100470002A2F30E0842FB41708F48B2F90E0281730
:10048000390784F2DF91CF910895FC019081292FE3
:100490002F7192959695977081818370880F880F40
:1004A000880F982B30E0291B3109205E3F4F81E0F7
:1004B000223031050CF480E00895FC012081922F58
:1004C00092959695977081818370880F880F880F19
:1004D000892B2F7190E0821B910980968F71907803
:1004E000992324F40197806E9F6F01960895FC0173
:1004F0002081922F9F71229526952770818183708C
:10050000880F880F880F282B892F90E0821B910974
:100510004F968F719078992324F40197806E9F6F86
:10052000019608951F920F920FB60F9211241F93F8
:100530002F933F934F935F936F937F938F939F93EB
:10054000AF93BF93CF93DF93EF93FF938091060810
:1005500080FD0AC08091040887FF06C086E098E20B
:100560000E944502811119C080910408807880930F
:100570000408FF91EF91DF91CF91BF91AF919F91CF
:100580008F917F916F915F914F913F912F911F912B
:100590000F900FBE0F901F9018956091000886E095
:1005A00098E20E944901809104298F5F8093042979
:1005B000909100298913D8CF8091EC289091ED2853
:1005C000892B91F286E098E20E945D02182F90E05C
:1005D0000E94F509EC01412F66E078E20E94980143
:1005E000E091EC28F091ED28412FBE0180E00995C3
:1005F000CE010E948D0A10920429B6CF1F920F924D
:100600000FB60F9211240F931F932F933F934F9385
:100610005F936F937F938F939F93AF93BF93EF936A
:10062000FF93CF93DF93CDB7DEB72597CDBFDEBF66
:100630001D828091060880FF1DC08091040880748F
:10064000809304082596CDBFDEBFDF91CF91FF9147
:10065000EF91BF91AF919F918F917F916F915F913A
:100660004F913F912F911F910F910F900FBE0F90BF
:100670001F901895BE016B5F7F4F8FE698E20E9436
:100680007801811147C01C8219821A821B82009155
:10069000F4281091F5280115110579F28FE698E2FA
:1006A0000E947702282FAE014D5F5F4FBE016F5F42
:1006B0007F4FCE010496F801099569817A81611511
:1006C000710509F4BACF4B81442309F4B6CF8FE604
:1006D00098E20E94F40189819A8120910228309148
:1006E00003282817390738F4209100283091012871
:1006F00028173907B8F4BE016B5F7F4F8FE698E289
:100700000E947801882309F498CF8091040885FF1E
:10071000FCCF04C08091040885FF8FCF8D8180932A
:1007200002088BCF0E948D0AE6CF1F920F920FB660
:100730000F9211241F932F933F934F935F936F93C7
:100740007F938F939F93AF93BF93CF93DF93EF9359
:10075000FF938091260880FD0AC08091240887FFBE
:1007600006C089E298E20E944502811119C0809179
:100770002408807880932408FF91EF91DF91CF9136
:10078000BF91AF919F918F917F916F915F914F91A9
:100790003F912F911F910F900FBE0F901F901895B2
:1007A0006091200889E298E20E9449018091052920
:1007B0008F5F80930529909101298913D8CF80916B
:1007C000EE289091EF28892B91F289E298E20E941D
:1007D0005D02182F90E00E94F509EC01412F69E2BB
:1007E00078E20E949801E091EE28F091EF28412FE5
:1007F000BE0180E00995CE010E948D0A1092052964
:10080000B6CF1F920F920FB60F9211240F931F9322
:100810002F933F934F935F936F937F938F939F9308
:10082000AF93BF93EF93FF93CF93DF93CDB7DEB733
:100830002597CDBFDEBF1D828091260880FF1DC099
:10084000809124088074809324082596CDBFDEBF54
:10085000DF91CF91FF91EF91BF91AF919F918F91D8
:100860007F916F915F914F913F912F911F910F91C8
:100870000F900FBE0F901F901895BE016B5F7F4FBA
:1008800082E998E20E947801811147C01C82198296
:100890001A821B820091F6281091F7280115110584
:1008A00079F282E998E20E947702282FAE014D5F2B
:1008B0005F4FBE016F5F7F4FCE010496F80109952F
:1008C00069817A816115710509F4BACF4B8144239E
:1008D00009F4B6CF82E998E20E94F40189819A81F5
:1008E00020910228309103282817390738F42091E5
:1008F00000283091012828173907B8F4BE016B5F32
:100900007F4F82E998E20E947801882309F498CF0A
:100910008091240885FFFCCF04C08091240885FFC6
:100920008FCF8D81809322088BCF0E948D0AE6CFD6
:100930001F920F920FB60F9211241F932F933F9384
:100940004F935F936F937F938F939F93AF93BF93D7
:10095000CF93DF93EF93FF938091460880FD0AC009
:100960008091440887FF06C08CE498E20E9445020B
:10097000811119C080914408807880934408FF91C8
:10098000EF91DF91CF91BF91AF919F918F917F9127
:100990006F915F914F913F912F911F910F900FBEDB
:1009A0000F901F901895609140088CE498E20E9487
:1009B0004901809106298F5F809306299091022931
:1009C0008913D8CF8091F0289091F128892B91F24A
:1009D0008CE498E20E945D02182F90E00E94F509D5
:1009E000EC01412F6CE478E20E949801E091F0283C
:1009F000F091F128412FBE0180E00995CE010E94BF
:100A00008D0A10920629B6CF1F920F920FB60F9241
:100A100011240F931F932F933F934F935F936F93E3
:100A20007F938F939F93AF93BF93EF93FF93CF9356
:100A3000DF93CDB7DEB72597CDBFDEBF1D82809196
:100A4000460880FF1DC0809144088074809344084C
:100A50002596CDBFDEBFDF91CF91FF91EF91BF9182
:100A6000AF919F918F917F916F915F914F913F9146
:100A70002F911F910F910F900FBE0F901F901895FF
:100A8000BE016B5F7F4F85EB98E20E947801811178
:100A900047C01C8219821A821B820091F82810918B
:100AA000F9280115110579F285EB98E20E94770289
:100AB000282FAE014D5F5F4FBE016F5F7F4FCE01AC
:100AC0000496F801099569817A816115710509F427
:100AD000BACF4B81442309F4B6CF85EB98E20E944C
:100AE000F40189819A8120910228309103282817E6
:100AF000390738F420910028309101282817390748
:100B0000B8F4BE016B5F7F4F85EB98E20E947801DD
:100B1000882309F498CF8091440885FFFCCF04C056
:100B20008091440885FF8FCF8D81809342088BCFC1
:100B30000E948D0AE6CF8F92AF92CF92EF920F93E1
:100B4000CF93DF93CDB7DEB7A797CDBFDEBF8D8F35
:100B50004E8F5F8F68A379A32AA30BA3ECA2CDA22B
:100B6000AEA28FA28D8D882F90E0880F991F81599A
:100B7000994AFC01808191818C839D831E8A1F8A02
:100B8000188E198E83E08A8F1B8E80EE95E0FC0113
:100B900082818C8F81E089838AA1883048F48AA180
:100BA000843018F08AA1863018F08BA1813318F0B8
:100BB00081E089831DC28C819D81892B09F418C233
:100BC0008DA1882309F44AC08091E8289091E928F2
:100BD000A091EA28B091EB282E8D3F8D48A159A114
:100BE000BC01CD010E94CD09DA01C901B695A795D6
:100BF00097958795880F991FAA1FBB1F880F991F6C
:100C0000AA1FBB1F880F991FAA1FBB1F880F991F00
:100C1000AA1FBB1F880F991FAA1FBB1F880F991FF0
:100C2000AA1FBB1F8E839F83A887B9878FEF9FEF73
:100C30008A879B878A859B859C0140E050E08E8156
:100C40009F81A885B98582179307A407B50710F47B
:100C50009C01AD01C9018E8B9F8B42C08091E82819
:100C60009091E928A091EA28B091EB28880F991F6C
:100C7000AA1FBB1F880F991FAA1FBB1F880F991F90
:100C8000AA1FBB1F2E8D3F8D48A159A1BC01CD01CC
:100C90000E94CD09DA01C9018C879D87AE87BF8785
:100CA0008FEF9FEF888B998B888999899C0140E011
:100CB00050E08C859D85AE85BF8582179307A4077C
:100CC000B50710F49C01AD01C9018E8B9F8B8E89F5
:100CD0009F898034910520F480E490E08E8B9F8B77
:100CE0008AA1877087709A8D987F892B8A8F8BA1B4
:100CF00082958F70837083708295807F9A8D9F7CA0
:100D0000892B8A8F8DA1882329F08A8D8F73806427
:100D10008A8F03C08A8D8F738A8F8EA1882399F062
:100D2000888D8C7F8160888F898D8160898F8D8D82
:100D3000882F90E08450974D2FA1FC0120838A8D4D
:100D400088608A8F1AC0888D8C7F888F898D8E7F6E
:100D5000898F8D8D882F90E08450974DFC011082F3
:100D60008CA186958695869581708170880F880FF5
:100D7000880F9A8D977F892B8A8F9DA181E0892783
:100D8000882321F0898D897F8260898F80EE95E0AC
:100D9000FC0182818C8F8D8D882F90E081309105B0
:100DA000B9F0823091051CF4892B39F02DC08230C6
:100DB0009105C1F0039701F127C089A9837082953D
:100DC000880F880F807C9C8D9F73892B8C8F1CC013
:100DD00089A9837083708295807F9C8D9F7C892BED
:100DE0008C8F12C089A983708370880F880F9C8DA7
:100DF000937F892B8C8F08C089A9837083709C8D09
:100E00009C7F892B8C8F0000898D8068898F898DCC
:100E10008064898F888D8068888F888D8064888FB2
:100E200080EE95E02C8DFC012283288D8C819D81A4
:100E3000FC012583298D8C819D81FC0126832A8DCF
:100E40008C819D81FC0127832B8D8C819D81FC01F0
:100E500022872E893F898C819D81FC0120873187E3
:100E60008C819D81FC0113868C819D81FC011486FF
:100E70008C819D81FC0115868C819D81FC011686EB
:100E80001A821B82000080E090E1FC018281882FA1
:100E900090E082709927892BB1F78D8D882F90E093
:100EA000805090409C5EFC0180818A8B000080E035
:100EB00090E1FC018281882F90E082709927892B34
:100EC000B1F789A9882F90E08C5E9F4F9C5EFC0152
:100ED00080818B8B000080E090E1FC018281882F73
:100EE00090E082709927892BB1F78D8D882F90E043
:100EF0008C5F9F4F9C5EFC0180818C8B000080E0AA
:100F000090E1FC018281882F90E082709927892BE3
:100F1000B1F78D8D882F90E0885F9F4F9C5EFC011C
:100F200080818D8B8DA18823A1F0000080E090E16D
:100F3000FC018281882F90E082709927892BB1F77C
:100F40008D8D882F90E0845F9F4F9C5EFC01808197
:100F50008A838EA18823A1F0000080E090E1FC014B
:100F60008281882F90E082709927892BB1F78D8D2F
:100F7000882F90E0805F9F4F9C5EFC0180818B8377
:100F80008B898F3F99F18A898F3F81F120E034E08E
:100F90008A89882F90E05C894A81542B4B81542B9D
:100FA0004B894523880F991F82959295907F9827AA
:100FB000807F9827820F931F0196FC01408320E0D9
:100FC00034E08A89882F90E05D894B894523880F1A
:100FD000991F82959295907F9827807F9827820FFE
:100FE000931F0296FC014083198202C081E089832D
:100FF0008981A796CDBFDEBFDF91CF910F91EF9092
:10100000CF90AF908F900895CF93DF93E82FF0E0CB
:10101000DF01AA0FBB1FA159B94ACD91DC9141153F
:101020005105C9F12223C9F1BA0183E28E9FD00193
:101030008F9FB00D1124A159B74D8C91382F3F715E
:1010400082958695877011969C919370990F990F50
:10105000990F892B381312C0DA018D91BD018A8353
:101060004FEF420F33E23E9FC0013F9F900D11248E
:101070008159974D0E94F40181E010C033E23E9FF8
:10108000C0013F9F900D1124422F8159974D0E941E
:10109000F40181E003C080E001C080E0DF91CF91E6
:1010A00008956115710541F0E82FF0E0EE0FFF1F84
:1010B000E451F74D6083718308956115710541F026
:1010C000E82FF0E0EE0FFF1FEC50F74D60837183C7
:1010D0000895E82FF0E0E050F74D608308958F9277
:1010E000AF92CF92EF920F931F9361E081E00E9445
:1010F000FF001F921F921F92812CA12C0F2EF0E354
:10110000CF2EF02D0F2EF3E0EF2EF02D00E910ED95
:1011100023E030E041E064E670E084E690E00E9485
:10112000E10878940F900F900F901F910F91EF901E
:10113000CF90AF908F900895CF93DF93CDB7DEB768
:101140006497CDBFDEBF80E1EFE5F6E5DE011196E5
:1011500001900D928A95E1F780E190E08093082953
:10116000909309290E946F08898B1A8A1B8ABE01F5
:101170006F5F7F4F80910829909109290E94730920
:101180008C8B89898823E9F38C898823D1F38A8918
:101190009B8901968A8B9B8BF4CFE9EDF8E28381E2
:1011A000948101978383948381E00895E9EDF8E2C7
:1011B000818192810197818392831092D82881E066
:1011C00008952F923F924F925F926F927F928F92EB
:1011D0009F92AF92BF92CF92DF92EF92FF920F93C6
:1011E0001F93CF93DF9300D0CDB7DEB7009709F4FC
:1011F00060C06115710509F45EC0D82C9A2CCA82B2
:10120000E98228013901142F1B017C018091E62815
:1012100080FD11C00F2EF9EDAF2EF8E2BF2EF02D9C
:10122000F501838594850E948D0AF501818592855B
:101230000E948D0A05C0E6EEF8E280818E7F8083F1
:101240000F2EF9EDAF2EF8E2BF2EF02DF501108331
:10125000E582F68227823086C7010E94F509F501F2
:1012600083879487C1010E94F509F50181879287E0
:10127000898D8F93888CAF88CD2CE92C0A812981A8
:10128000B301A201812F0E949B05082F66ED78E033
:10129000812F0E945D086DEC78E0812F0E9451083B
:1012A00060E2812F0E9469080F90011106C080E062
:1012B00005C081E003C081E001C085E00F900F9080
:1012C000DF91CF911F910F91FF90EF90DF90CF9022
:1012D000BF90AF909F908F907F906F905F904F9056
:1012E0003F902F9008952091E0283091E128281711
:1012F000390708F44EC06115710509F44CC041E08E
:1013000050E00DC0E091E228F091E328E40FF51FD2
:10131000DB01A40FB51F2C9120834F5F5F4F48174F
:10132000590780F3AC0156954795529542954F70F9
:1013300045275F704527BC016F71772761157105DF
:1013400011F061E070E09C01CB01840F951F809348
:10135000DA289093DB282032310580F481E08093F5
:10136000D828E9EDF8E241855285808160E00E944D
:1013700004088091D8288111FCCF0895E9EDF8E2A6
:1013800041855285808120E260E00E94040880E06F
:10139000089582E0089583E00895A1E21A2EAA1B21
:1013A000BB1BFD010DC0AA1FBB1FEE1FFF1FA21715
:1013B000B307E407F50720F0A21BB30BE40BF50B12
:1013C000661F771F881F991F1A9469F7609570959B
:1013D000809590959B01AC01BD01CF010895EE0F62
:1013E000FF1F0590F491E02D09940F931F93CF9365
:1013F000DF938230910510F482E090E0E0910C29B7
:10140000F0910D2920E030E0A0E0B0E0309719F134
:10141000408151810281138148175907C8F0841710
:10142000950769F4109731F012960C931297139662
:101430001C9327C000930C2910930D2922C021155D
:10144000310519F04217530718F49A01BD01EF0155
:10145000DF01F801DBCF21153105F9F0281B390B2D
:101460002430310580F48A819B816115710521F05A
:10147000FB018283938304C080930C2990930D29F0
:10148000FE01329644C0FE01E20FF31F8193919357
:1014900022503109288339833AC020910A2930919A
:1014A0000B29232B41F4209102283091032820930B
:1014B0000A2930930B292091002830910128211509
:1014C000310541F42DB73EB74091042850910528CD
:1014D000241B350BE0910A29F0910B29E217F30741
:1014E000A0F42E1B3F0B2817390778F0AC014E5F94
:1014F0005F4F2417350748F04E0F5F1F40930A29AE
:1015000050930B298193919302C0E0E0F0E0CF016A
:10151000DF91CF911F910F910895CF93DF930097A3
:1015200009F481C0FC01329712821382A0910C2928
:10153000B0910D29109781F420813181820F931F82
:1015400020910A2930910B292817390751F5E0938A
:101550000A29F0930B2967C0ED0120E030E0CE1797
:10156000DF0740F44A815B819E0141155105F1F08E
:10157000EA01F5CFC283D38340815181840F951F47
:10158000C817D90759F488819981840F951F02964D
:10159000808391838A819B81828393832115310586
:1015A00029F4E0930C29F0930D293DC0E901EA8369
:1015B000FB8349915991C40FD51FEC17FD0761F4C6
:1015C00080819181840F951F0296E9018883998318
:1015D000828193818A839B83E0E0F0E012968D9173
:1015E0009C911397009719F0FD01DC01F7CF8D91C5
:1015F0009C9111979D012E5F3F4F820F931F209169
:101600000A2930910B292817390769F4309729F4F2
:1016100010920C2910920D2902C012821382A093FD
:101620000A29B0930B29DF91CF910895FB01DC01CA
:1016300002C001900D9241505040D8F70895F8949F
:02164000FFCFDA
:101642000204081020400000060A0C1830002D3158
:1016520001007D0000008000000000000002000A7E
:101662000020005349434B5F4C4D535FB2000820AA
:05167200084008000023
:1016770000000E29200000002000000000000000EC
:101687000000000000000000000000000000000053
:101697000000000000000000000000200000000023
:1016A7000000000000000000000000000000000033
:1016B7000000000000000000000000000000200003
:1016C7000000000000000000000000000000000013
:1016D7000000000000000000000000000000000003
:1016E70000200000000000000000000000000000D3
:1016F70000000000000000000000000000000000E3
:1017070000000000200000000000000000000000B2
:1017170000000000000000000000000000000000C2
:101727000000000000000020000000000000000092
:1017370000000000000000000000000000000000A2
:101747000000000000000000010000000000000091
:08175700000000000000030087
:00000001FF
