:100000000C9487000C94A4000C94A4000C94A400FD
:100010000C94A4000C94A4000C94A4000C94DD098E
:100020000C94A4000C94A4000C94A4000C94A400C0
:100030000C94A4000C94A4000C94A4000C94A400B0
:100040000C94A4000C9446020C94A4000C94BC02E2
:100050000C94A4000C94A4000C94A4000C94A40090
:100060000C94A4000C94A4000C9451030C94A400D0
:100070000C94C7030C94A4000C94A4000C945C048E
:100080000C94A4000C94D2040C94A4000C94A4002E
:1000900043012D012F012D0131012D0133012D01CE
:1000A00035012D0137012D012D012D0139012D01C2
:1000B0002D012D012D012D012D012D013B012D01C2
:1000C0002D012D012D012D012D012D013D012D01B0
:1000D0002D012D012D012D012D012D012D012D01B0
:1000E0002D012D012D012D012D012D013F012D018E
:1000F0002D012D012D012D012D012D012D012D0190
:100100002D012D012D012D012D012D014101112464
:100110001FBECFEFCDBFDFE3DEBF1BE2A0E0B8E242
:10012000E2E3F2E202C005900D92AC3BB107D9F7D1
:100130002CE2ACEBBBE201C01D92A830B207E1F7A4
:100140000E9468080C94D9100C944608FC01808128
:10015000918193959F71891780E041F08181DF0142
:10016000A80FA11D13966C93918381E00895FC0163
:1001700090818181891780E059F0DF01A90FB11DBD
:1001800013968C91DB018C9393959F71908381E002
:100190000895CF93DF93CDB7DEB76D97CDBFDEBFA8
:1001A0008DE0E6EBF1E6DE01119601900D928A9565
:1001B000E1F780E1E3ECF1E6DE011E9601900D929D
:1001C0008A95E1F7A0E6B0E0EC91E370F0E0EE0F85
:1001D000FF1FEE0FFF1F21E030E02C0F3D1FE20F4D
:1001E000F31F658576858785908911962C9120FF70
:1001F0001BC0E0916100EE71F0E0F595E79521E01C
:1002000030E02C0F3D1FE20FF31F208130E040E073
:1002100050E00E94720F2093BC2B3093BD2B409373
:10022000BE2B5093BF2B08C06093BC2B7093BD2B8B
:100230008093BE2B9093BF2B6D96CDBFDEBFDF9119
:10024000CF910895462F50E0FA013297EF33F10530
:1002500020F4E85BFF4F0C94940F2EEF15C023E0C1
:1002600013C021E111C025E00FC023E10DC025E13D
:100270000BC027E009C027E107C029E005C029E13C
:1002800003C02BE001C021E0882319F0813081F008
:100290000895E0E6F0E0848D8F7C836198ED94BF53
:1002A000848F0E94C9008091630086FFFCCF08956F
:1002B000E0E6F0E090819F7788ED84BF908384BF73
:1002C000218384BF82818E7F82830E94C9008091B6
:1002D00063008031E1F70895F89481E00895FC010E
:1002E00080818FBF0895AF92BF92CF92DF92EF923D
:1002F000FF920F931F93CF93DF931F92CDB7DEB77B
:100300006C017B01FB018181805E9081891B8F7173
:10031000142F841708F4182FF70122813081412F00
:1003200050E0822F90E0831B9109481759078CF009
:100330008081022F081B49F5812F0F90DF91CF910B
:100340001F910F91FF90EF90DF90CF90BF90AF90F3
:100350000895112389F3F701608170E06D5F7F4F8D
:100360006E0D7F1DC6010E94D0108FB789830E9439
:100370006C01882329F0F7018081810F8F718083C0
:10038000CE0101960E946F01D7CF6081A02EB12CC3
:1003900070E06D5F7F4F6E0D7F1DA501C6010E944D
:1003A000D010412F401B09F350E0B7016D5F7F4F24
:1003B000C6018A0D9B1D0E94D010D7CFAF92BF926D
:1003C000CF92DF92EF92FF920F931F93CF93DF9321
:1003D0001F92CDB7DEB77C016B01FC018081815E8D
:1003E0009181891B8F71142F841708F4182FF7013E
:1003F00022813181412F50E0822F90E0831B9109AF
:10040000481759078CF08181022F081B41F5812F75
:100410000F90DF91CF911F910F91FF90EF90DF90A0
:10042000CF90BF90AF900895112389F3F701818198
:1004300090E00396B6018E0D9F1D0E94D0108FB7DD
:1004400089830E946C01882329F0F7018181810F43
:100450008F718183CE0101960E946F01D8CF818177
:10046000A02EB12C90E00396A501B6018E0D9F1D24
:100470000E94D010412F401B11F350E0B6016A0DCD
:100480007B1DC70103960E94D010D9CF1F920F92F7
:100490000FB60F9211240F931F932F933F934F93F7
:1004A0005F936F937F938F939F93AF93BF93CF93FC
:1004B000DF93EF93FF938091060880FD11C0809138
:1004C000040887FF0DC0C6E0D8E2FE01808191815B
:1004D00093959F71981780E009F081E081111AC00F
:1004E00080910408807880930408FF91EF91DF9158
:1004F000CF91BF91AF919F918F917F916F915F91BC
:100500004F913F912F911F910F910F900FBE0F9020
:100510001F90189560910008CE010E94A60080915E
:10052000D82B8F5F8093D82B9091D42B8913D8CF61
:100530008091C02B9091C12B892B91F2FE01C1813A
:10054000C05E9081C91BCF718C2F90E00E94AF0FCD
:100550008C014C2F66E078E20E947301E091C02B81
:10056000F091C12B4C2FB80180E00995C8010E9481
:1005700047101092D82BB4CF1F920F920FB60F9244
:1005800011242F933F934F935F936F937F938F9398
:100590009F93AF93BF93EF93FF93CF93DF93CDB729
:1005A000DEB72597CDBFDEBF1D828091060880FF94
:1005B0001BC0809104088074809304082596CDBFE9
:1005C000DEBFDF91CF91FF91EF91BF91AF919F91EE
:1005D0008F917F916F915F914F913F912F910F90EC
:1005E0000FBE0F901F901895BE016B5F7F4F8FE677
:1005F00098E20E94B700811149C01C8219821A82B8
:100600001B82A091C82BB091C92B109791F2EFE6F5
:10061000F8E28081815E9181891B8F71282FAE0164
:100620004D5F5F4FBE016F5F7F4FCE010496FD01AE
:10063000099569817A816115710509F4BACF4B81F9
:10064000442309F4B6CF8FE698E20E94DE01898147
:100650009A8120910228309103282817390738F40D
:10066000209100283091012828173907B8F4BE01DD
:100670006B5F7F4F8FE698E20E94B700882309F4F2
:1006800098CF8091040885FFFCCF04C080910408B6
:1006900085FF8FCF8D81809302088BCF0E944710FA
:1006A000E6CF1F920F920FB60F9211240F931F9354
:1006B0002F933F934F935F936F937F938F939F936A
:1006C000AF93BF93CF93DF93EF93FF93809126086F
:1006D00080FD11C08091240887FF0DC0C9E2D8E2D7
:1006E000FE018081918193959F71981780E009F0B8
:1006F00081E081111AC080912408807880932408B9
:10070000FF91EF91DF91CF91BF91AF919F918F9129
:100710007F916F915F914F913F912F911F910F9119
:100720000F900FBE0F901F90189560912008CE017A
:100730000E94A6008091D92B8F5F8093D92B909136
:10074000D52B8913D8CF8091C22B9091C32B892BA5
:1007500091F2FE01C181C05E9081C91BCF718C2FC7
:1007600090E00E94AF0F8C014C2F69E278E20E946A
:100770007301E091C22BF091C32B4C2FB80180E0A4
:100780000995C8010E9447101092D92BB4CF1F922F
:100790000F920FB60F9211242F933F934F935F93B5
:1007A0006F937F938F939F93AF93BF93EF93FF9339
:1007B000CF93DF93CDB7DEB72597CDBFDEBF1D82C8
:1007C0008091260880FF1BC080912408807480934C
:1007D00024082596CDBFDEBFDF91CF91FF91EF9129
:1007E000BF91AF919F918F917F916F915F914F9149
:1007F0003F912F910F900FBE0F901F901895BE0143
:100800006B5F7F4F82E998E20E94B700811149C077
:100810001C8219821A821B82A091CA2BB091CB2B09
:10082000109791F2E2E9F8E28081815E9181891B63
:100830008F71282FAE014D5F5F4FBE016F5F7F4FFD
:10084000CE010496FD01099569817A8161157105D2
:1008500009F4BACF4B81442309F4B6CF82E998E278
:100860000E94DE0189819A8120910228309103281B
:100870002817390738F420910028309101282817CB
:100880003907B8F4BE016B5F7F4F82E998E20E949E
:10089000B700882309F498CF8091240885FFFCCF06
:1008A00004C08091240885FF8FCF8D81809322081A
:1008B0008BCF0E944710E6CF1F920F920FB60F9278
:1008C00011240F931F932F933F934F935F936F9335
:1008D0007F938F939F93AF93BF93CF93DF93EF93C8
:1008E000FF938091460880FD11C08091440887FFE6
:1008F0000DC0CCE4D8E2FE018081918193959F7177
:10090000981780E009F081E081111AC080914408B5
:10091000807880934408FF91EF91DF91CF91BF9150
:10092000AF919F918F917F916F915F914F913F9187
:100930002F911F910F910F900FBE0F901F90189540
:1009400060914008CE010E94A6008091DA2B8F5F53
:100950008093DA2B9091D62B8913D8CF8091C42B1A
:100960009091C52B892B91F2FE01C181C05E9081CF
:10097000C91BCF718C2F90E00E94AF0F8C014C2FC0
:100980006CE478E20E947301E091C42BF091C52BD6
:100990004C2FB80180E00995C8010E9447101092C1
:1009A000DA2BB4CF1F920F920FB60F9211242F9310
:1009B0003F934F935F936F937F938F939F93AF93E7
:1009C000BF93EF93FF93CF93DF93CDB7DEB7259718
:1009D000CDBFDEBF1D828091460880FF1BC0809185
:1009E00044088074809344082596CDBFDEBFDF9114
:1009F000CF91FF91EF91BF91AF919F918F917F9197
:100A00006F915F914F913F912F910F900FBE0F907B
:100A10001F901895BE016B5F7F4F85EB98E20E9497
:100A2000B700811149C01C8219821A821B82A091D1
:100A3000CC2BB091CD2B109791F2E5EBF8E28081B1
:100A4000815E9181891B8F71282FAE014D5F5F4FB1
:100A5000BE016F5F7F4FCE010496FD01099569814C
:100A60007A816115710509F4BACF4B81442309F4E9
:100A7000B6CF85EB98E20E94DE0189819A812091B0
:100A80000228309103282817390738F420910028CC
:100A90003091012828173907B8F4BE016B5F7F4FEA
:100AA00085EB98E20E94B700882309F498CF8091E3
:100AB000440885FFFCCF04C08091440885FF8FCF98
:100AC0008D81809342088BCF0E944710E6CF8F9292
:100AD000AF92CF92EF920F93CF93DF93CDB7DEB764
:100AE000A797CDBFDEBF8D8F4E8F5F8F68A379A391
:100AF0002AA30BA3ECA2CDA2AEA28FA28D8D882F2C
:100B000090E0880F991F8F509E49FC018081918150
:100B10008C839D831E8A1F8A188E198E83E08A8F8C
:100B20001B8E80EE95E0FC0182818C8F81E08983B1
:100B30008AA1883048F48AA1843018F08AA18630CE
:100B400018F08BA1813318F081E089831DC28C815C
:100B50009D81892B09F418C28DA1882309F44AC00C
:100B60008091BC2B9091BD2BA091BE2BB091BF2B3F
:100B70002E8D3F8D48A159A1BC01CD010E94720F5D
:100B8000DA01C901B695A79597958795880F991FA2
:100B9000AA1FBB1F880F991FAA1FBB1F880F991F71
:100BA000AA1FBB1F880F991FAA1FBB1F880F991F61
:100BB000AA1FBB1F880F991FAA1FBB1F8E839F836D
:100BC000A887B9878FEF9FEF8A879B878A859B8548
:100BD0009C0140E050E08E819F81A885B9858217F5
:100BE0009307A407B50710F49C01AD01C9018E8BD2
:100BF0009F8B42C08091BC2B9091BD2BA091BE2BAE
:100C0000B091BF2B880F991FAA1FBB1F880F991F78
:100C1000AA1FBB1F880F991FAA1FBB1F2E8D3F8DB8
:100C200048A159A1BC01CD010E94720FDA01C9018E
:100C30008C879D87AE87BF878FEF9FEF888B998BBF
:100C4000888999899C0140E050E08C859D85AE851E
:100C5000BF8582179307A407B50710F49C01AD0167
:100C6000C9018E8B9F8B8E899F898034910520F4DA
:100C700080E490E08E8B9F8B8AA1877087709A8D1D
:100C8000987F892B8A8F8BA182958F708370837058
:100C90008295807F9A8D9F7C892B8A8F8DA1882356
:100CA00029F08A8D8F7380648A8F03C08A8D8F7339
:100CB0008A8F8EA1882399F0888D8C7F8160888FA0
:100CC000898D8160898F8D8D882F90E08053944D20
:100CD0002FA1FC0120838A8D88608A8F1AC0888D9D
:100CE0008C7F888F898D8E7F898F8D8D882F90E066
:100CF0008053944DFC0110828CA186958695869533
:100D000081708170880F880F880F9A8D977F892B4B
:100D10008A8F9DA181E08927882321F0898D897F91
:100D20008260898F80EE95E0FC0182818C8F8D8DB1
:100D3000882F90E081309105B9F0823091051CF444
:100D4000892B39F02DC082309105C1F0039701F154
:100D500027C089A983708295880F880F807C9C8D1D
:100D60009F73892B8C8F1CC089A983708370829597
:100D7000807F9C8D9F7C892B8C8F12C089A983706A
:100D80008370880F880F9C8D937F892B8C8F08C070
:100D900089A9837083709C8D9C7F892B8C8F000028
:100DA000898D8068898F898D8064898F888D80681E
:100DB000888F888D8064888F80EE95E02C8DFC0173
:100DC0002283288D8C819D81FC012583298D8C8136
:100DD0009D81FC0126832A8D8C819D81FC012783C6
:100DE0002B8D8C819D81FC0122872E893F898C81EE
:100DF0009D81FC01208731878C819D81FC011386B8
:100E00008C819D81FC0114868C819D81FC0115865D
:100E10008C819D81FC0116861A821B82000080E075
:100E200090E1FC018281882F90E082709927892BC4
:100E3000B1F78D8D882F90E0805090409C5EFC0132
:100E400080818A8B000080E090E1FC018281882F04
:100E500090E082709927892BB1F789A9882F90E0BB
:100E60008C5E9F4F9C5EFC0180818B8B000080E03C
:100E700090E1FC018281882F90E082709927892B74
:100E8000B1F78D8D882F90E08C5F9F4F9C5EFC01A9
:100E900080818C8B000080E090E1FC018281882FB2
:100EA00090E082709927892BB1F78D8D882F90E083
:100EB000885F9F4F9C5EFC0180818D8B8DA1882374
:100EC000A1F0000080E090E1FC018281882F90E099
:100ED00082709927892BB1F78D8D882F90E0845FE0
:100EE0009F4F9C5EFC0180818A838EA18823A1F0A4
:100EF000000080E090E1FC018281882F90E0827008
:100F00009927892BB1F78D8D882F90E0805F9F4FB7
:100F10009C5EFC0180818B838B898F3F99F18A894C
:100F20008F3F81F120E034E08A89882F90E05C894E
:100F30004A81542B4B81542B4B894523880F991F91
:100F400082959295907F9827807F9827820F931F94
:100F50000196FC01408320E034E08A89882F90E0EC
:100F60005D894B894523880F991F82959295907FC3
:100F70009827807F9827820F931F0296FC01408359
:100F8000198202C081E089838981A796CDBFDEBF27
:100F9000DF91CF910F91EF90CF90AF908F90089508
:100FA000CF93DF93A82FB0E0FD01EE0FFF1FEF50AE
:100FB000FE49C081D1814115510521F1222321F142
:100FC000BA0183E28A9FF0018B9FF00D1124E15951
:100FD000F74D80819181981780E009F081E08111BF
:100FE0000BC0DA018D91BD018A834FEF420FCF0113
:100FF0000E94DE0181E009C0422FCF010E94DE0184
:1010000081E003C080E001C080E0DF91CF910895CE
:101010006115710541F0E82FF0E0EE0FFF1FE0547D
:10102000F44D6083718308956115710541F0E82FD7
:10103000F0E0EE0FFF1FE853F44D608371830895D5
:10104000E82FF0E0EC52F44D60830895E0E6F4E020
:1010500080818160808380898460808B089588236B
:1010600019F0813039F00CC0E0E6F4E084818E7F25
:1010700084830895E0E6F4E08481816084830895A8
:10108000E0E6F4E084818E7F848308951895CF9301
:10109000DF93DC01EA016217730779F080E015C085
:1010A000FD01E20FF31F5081FE01E20FF31F90815B
:1010B00059130AC02F5F3F4F02C020E030E02617CF
:1010C000370770F381E001C080E0DF91CF91089590
:1010D000CF93DF93CDB7DEB7CB51D240CDBFDEBFCC
:1010E00061E081E00E94220160E074E081E00E9402
:1010F00014090E9426088BE0E3EDF1E6DE0111966B
:1011000001900D928A95E1F7E980FA800B811C81AC
:101110002D813E814F81588569857A858B850E9416
:10112000E00B80E00E942F0805ED2BEB39E048E151
:101130005BE061E97BE0CE010C960E945B0C789449
:101140001C8AFE01759684EF91E0DF019C011D92DF
:1011500021503040E1F783E1EEEDF1E6DE01A75FDB
:10116000BD4F01900D928A95E1F704E110E09E01D8
:10117000275F3D4FAE01445F5F4F60E071E081E06B
:101180000E941D0E8C8B8C89882321F081E00E94A7
:101190002F0803C080E00E942F0804E110E09E01A8
:1011A0002B5E3F4FAE01445F5F4F60E071E081E036
:1011B0000E94790C8C8B8C89882321F081E00E941D
:1011C0002F0803C080E00E942F0824E130E0AE0128
:1011D0004B5E5F4F64E170E0CE01875F9D4F0E94E0
:1011E00047088C8B8C89811104C081E00E942F08F4
:1011F00003C080E00E942F08FFCF80E012C0E82FDC
:10120000F0E0EE0FFF1FEE0FFF1FE452F44D1082CF
:101210001182128293819078938393819F77938335
:101220008F5F8A3060F30895EF92FF920F931F93C0
:10123000CF93C82F8B01E091D828F091D9288285CF
:101240008E7F82870E94FD0801151105B9F00330D9
:101250001105B9F0C801059783309105A8F00497EE
:1012600087309105A0F008978F97A0F001541109DD
:101270000F3B110590F420E031E011C021E030E097
:101280000EC024E030E00BC028E030E008C020E1D0
:1012900030E005C020E430E002C020E034E0283037
:1012A000310511F150F422303105D1F024303105EF
:1012B000C9F02130310511F511C020343105C1F0DC
:1012C00020F42031310591F019C0211581E0380753
:1012D00089F0211584E0380779F010C010E00FC0C4
:1012E00012E00DC014E00BC016E009C018E007C002
:1012F0001AE005C01CE003C01EE001C010E0116050
:10130000C093DB286091BC2B7091BD2B8091BE2BCC
:101310009091BF2B40E050E00E94720FEC2FF0E064
:10132000E29F7001E39FF00CF29FF00C112421E08A
:10133000672B682B692B09F420E0E8EDF8E2A08127
:10134000B181C701820F911D96968D939C939797BB
:10135000AAEDB8E28C9181608C93A081B1811C933D
:101360000190F081E02D81E08287CF911F910F9154
:10137000FF90EF9008950F931F938B019C0140E025
:1013800050E0BA0104C04F5F5F4F6F4F7F4FD901EC
:10139000C801880F991FAA1FBB1F880F991FAA1F7A
:1013A000BB1F800F911FA21FB31F481759076A0761
:1013B0007B0748F31F910F9108951F920F920FB66C
:1013C0000F9211242F933F934F938F939F93AF933B
:1013D000BF93EF93FF9320E030E042C0F901EE0F9E
:1013E000FF1FEE0FFF1FE152F44D80818823D4F4DC
:1013F000F901EE0FFF1FEE0FFF1FE452F44D808145
:101400009181A2814381B42FBF770197A109B04890
:10141000BF7780839183A2839B2F9F77838180787E
:10142000892B8383F901EE0FFF1FEE0FFF1FE4529C
:10143000F44D80819181A2814381B42FBF77892BA4
:101440008A2B8B2B59F4F901FF27EE0FFF1FEE0FAC
:10145000FF1FE452F44D83818F7783832F5F3F4FCB
:101460002A3031050CF4BACFE091D828F091D92870
:10147000838581608387FF91EF91BF91AF919F91A9
:101480008F914F913F912F910F900FBE0F901F9012
:1014900018958091B32B81110AC0EAEBFBE28081A1
:1014A000877F80831092B42B1092B52B27C0809138
:1014B000B42B9091B52B855B954DDB018D939C935F
:1014C0008091B32B821758F4E3EBFBE28081DA01C1
:1014D0008C9310821092B42B1092B52B0FC0FA018E
:1014E0002083E3EBFBE28081821B8083E4EBFBE261
:1014F00080819181820F911D8083918381E0089585
:101500002F923F924F925F926F927F928F929F9213
:10151000AF92BF92CF92DF92EF92FF920F931F9301
:10152000CF93DF93CDB7DEB72997CDBFDEBF322E85
:10153000432E542E652E762E7B838C839D830983C8
:101540001A838E2C1F821E82B0E0A0E0F0E0E0E063
:10155000212C912CF887E98718C0E981FA818081D4
:10156000881531F12F813E814B2F5A2F688579855F
:10157000822D992DA1E00E949A0F2F833E83B42FD4
:10158000A52F68877987282E992E2F813E814B2F92
:101590005A2F68857985822D992DA32CB42CC52CC2
:1015A000D62CE72CFB800C811D810E94A60FA8F28F
:1015B000E981FA818081881202C080E001C087E061
:1015C0002996CDBFDEBFDF91CF911F910F91FF9084
:1015D000EF90DF90CF90BF90AF909F908F907F90D3
:1015E0006F905F904F903F902F9008950F931F93AF
:1015F000CF93DF93E4E4FAE28081841B8083C42FDD
:10160000D0E005E41AE2F80180819181AE018452B4
:10161000974D0E94D010F80140815181C40FD51F11
:10162000C083D18381E0DF91CF911F910F91089505
:10163000EF920F931F93CF93DF93AC012091B62BC2
:101640003091B72B2617370708F460C0892B09F4AF
:101650005FC08091BA2B82FF5DC09091B32B911136
:10166000FCCFEB01BA01EAEBFBE28081886080836A
:10167000C093B32BAE018BE49AE20E94D01020916C
:10168000B82B3091B92B2C173D07A0F01092B32B3B
:10169000E4EBFBE2808191818C0F9D1F808391831D
:1016A0008091BA2B2C2F4BE45AE260E083700E94A9
:1016B000D00715C0E3EBFBE28081821B8083E4EB63
:1016C000FBE280819181820F931F808391838091BF
:1016D000BA2B4BE45AE260E083700E94D00720E20C
:1016E00031EAC29FC001C39F900DD29F900D11247B
:1016F000E12C03EB1BE2282F392F40E050E060E0A3
:1017000070E080E090E00E94800A05C084E003C0A1
:1017100081E001C086E0DF91CF911F910F91EF90A2
:101720000895CF92DF92EF920F931F93CF93DF93A1
:101730000097C1F12091472A3091482A2617370790
:1017400098F16115710591F1EB016C018091BA2B53
:101750006093442A6C2F83700E94200880E291EAF3
:10176000C89FA001C99F500DD89F500D1124E12C96
:1017700004E41AE2242F352F40E050E060E070E0EE
:1017800080E090E00E94800A182F811106C0AE010F
:101790006CED78E2C6010E94D0101092452A10929A
:1017A000462A05C011E003C014E001C014E0812FF7
:1017B000DF91CF911F910F91EF90DF90CF9008951F
:1017C0008F92AF92CF92EF92FF920F931F93CF938E
:1017D000DF93CDB7DEB72C97CDBFDEBF9E2DEA825B
:1017E000FB820C831D832E83232F3F83042F488786
:1017F000E52E59876A877B878C87837061FBAA24D3
:10180000A0F860FBCC24C0F8192F13704B815C81C9
:101810006D817E818F938B84812F0E9467058983E0
:10182000EAEBFBE280818C7F812B8083898191E0D0
:101830000F90811190E0EAEBFBE2808190FB82F94E
:10184000808369E47AE0812F0E94140866EF7AE0D1
:10185000812F0E9408088981882311F080E001C04F
:1018600085E02C96CDBFDEBFDF91CF911F910F9108
:10187000FF90EF90CF90AF908F900895CF93DF932C
:10188000FC0180E011C0EF012196208198E008C0A2
:10189000382F3227880F33230CF48427220F9150DE
:1018A0009111F6CFBD01FE01DB011197672B59F7AE
:1018B000DF91CF9108950F93FC016115710591F0AF
:1018C0004115510589F02115310581F0608371833F
:1018D0004283538324833583078386818160868393
:1018E00080E005C081E003C081E001C081E00F918C
:1018F0000895BF92CF92DF92EF92FF920F931F93C2
:10190000CF93DF93CDB7DEB7C05AD140CDBFDEBF96
:10191000B82E4115510509F479C12115310509F495
:1019200077C1DA0116969C9190FF74C190E011C0C6
:10193000E92FF0E0DF01AA0FBB1FEA0FFB1FE75002
:10194000FE498181A081B82FBF706A177B0721F003
:101950009F5F933168F39FEF6801E12CF12C9F3F6B
:1019600039F1692F22C0E62FF0E0DF01AA0FBB1F7B
:10197000EA0FFB1FE650FE49708172957F70E1818E
:10198000FE2FF295F07FAF2FA72BE4FBBB27B0F91A
:10199000CA1ADB0AE108F10812F461500AC0C11446
:1019A000D104E104F10429F06F5F6331E0F201C07A
:1019B0006FEF9F3F09F430C16F3F09F42FC17E01E3
:1019C000BBE0EB0EF11CA0E9B1E0F7018D01119233
:1019D00001501040E1F7992344F169174CF1A92F08
:1019E000092E000CBB0B00E010E016C0FD01EE0F4D
:1019F000FF1FEA0FFB1FE650FE49708172957F7052
:101A0000E181FE2FF295F07FEF2EE72AE4FBFF2421
:101A1000F0F80E0D1F1D1196E62F062E000CFF0B81
:101A20003196AE17BF0714F305C000E010E002C006
:101A300000E010E079016A011B2D892F990F990BA5
:101A400025EAC556DE4F2883CB59D140C456DE4F18
:101A5000B882CC59D140FC01EE0FFF1FE80FF91FEF
:101A6000DF01A750BE499C9111968C91B92EC356A7
:101A7000DE4F9883CD59D1408F708064C256DE4FBF
:101A80008883CE59D140E650FE498081982F9295A7
:101A90009F7081818295807F892BC156DE4F88831C
:101AA000CF59D14085E0FE01E556FE4FDE0111968B
:101AB00001900D928A95E1F785E0FE013196DE01F5
:101AC000169601900D928A95E1F785E0FE01369613
:101AD000DE01A556BE4F01900D928A95E1F788E090
:101AE000C156DE4F8883CF59D14085E0FE01E556CF
:101AF000FE4FDE011B9601900D928A95E1F7C056CC
:101B0000DE4F0883C05AD140088BDA0117964C91FA
:101B100061E070E0CE0180569E4F0E943E0C898BA2
:101B200086EA8A8BD6011296ED91FC91139768E0B4
:101B300070E0CE010B960995D601ED91FC9161E024
:101B400070E0CE010B9609958B85823A09F454C05A
:101B5000853A09F053C0D601ED91FC9164E070E044
:101B6000CE010B9609958B8518130EC08C858B11B1
:101B70000DC09D85C256DE4F8881CE59D140892740
:101B8000803431F080E005C080E003C080E001C017
:101B900081E08170A9F10E8510E0B80165507109EE
:101BA000D601ED91FC91CE010B960995F601478186
:101BB0006801F7E0CF1AD108EBE0F0E0EC0FFD1F71
:101BC000EC0DFD1DB080B601CE010B960E943E0CBF
:101BD000F80136970BE010E00C0F1D1FE00FF11F0E
:101BE0009081B8120FC0963A79F4A601B801C701E6
:101BF0000E94D01080E013C084E011C085E00FC0C7
:101C000085E00DC085E00BC085E009C081E007C01C
:101C100081E005C086E003C084E001C084E0C056D6
:101C2000DE4FCDBFDEBFDF91CF911F910F91FF90AF
:101C3000EF90DF90CF90BF9008958F929F92AF92D8
:101C4000BF92CF92DF92EF92FF920F931F93CF93A9
:101C5000DF93CDB7DEB7C15AD140CDBFDEBF982EDE
:101C60004115510509F426C12115310509F424C196
:101C700090E013C0E92FF0E0DF01AA0FBB1FEA0FCD
:101C8000FB1FE750FE498181A081B82FBF706A1702
:101C90007B0711F4692F04C09F5F933158F36FEFF6
:101CA0006801E12CF12C6F3F39F1962F22C0E92F0A
:101CB000F0E0DF01AA0FBB1FEA0FFB1FE650FE4951
:101CC000708172957F70E181FE2FF295F07FAF2FCA
:101CD000A72BE4FBBB27B0F9CA1ADB0AE108F1081D
:101CE00012F491500AC0C114D104E104F10429F0A6
:101CF0009F5F9331E0F201C09FEF662344F1961796
:101D00004CF1A62F062E000CBB0B00E010E016C015
:101D1000FD01EE0FFF1FEA0FFB1FE650FE49708129
:101D200072957F70E181FE2FF295F07FEF2EE72A0A
:101D3000E4FBFF24F0F80E0D1F1D1196E92F092E6C
:101D4000000CFF0B3196AE17BF0714F305C000E07F
:101D500010E002C000E010E06F3F09F4AFC096173A
:101D60000CF4AEC069015A017E014BE0E40EF11C97
:101D700020E931E0D701F9011D923197E9F7062EEC
:101D8000000C770B95EAC556DE4F9883CB59D140AE
:101D9000C456DE4F9882CC59D140FB01EE0FFF1F95
:101DA000E60FF71FDF01A750BE499C9111968C9159
:101DB000C356DE4F9883CD59D1408F708068C2568C
:101DC000DE4F8883CE59D140E650FE498081982F5E
:101DD00092959F7081818295807F892BC156DE4FBD
:101DE0008883CF59D14085E0FE01E556FE4FDE01E4
:101DF000119601900D928A95E1F785E0FE013196EA
:101E0000DE01169601900D928A95E1F785E0FE01BC
:101E10003696DE01A556BE4F01900D928A95E1F7E8
:101E200087E0800FC156DE4F8883CF59D14085E0CF
:101E3000FE01E556FE4FD70101900D928A95E1F71C
:101E4000A801B601CE0140960E94D0104801F5E0ED
:101E50008F0E911CD50117964C91B801C6010E94B6
:101E60003E0C282F36EAC056DE4F28833983C05AED
:101E7000D140F701E80DF91DC056DE4F88819981E8
:101E8000C05AD14080839183B801695F7F4FD501EB
:101E90001296ED91FC911397C7010995D501ED912B
:101EA000FC9161E070E0C70109959B85913A49F08A
:101EB00085E007C081E005C081E003C084E001C087
:101EC00084E0CF55DE4FCDBFDEBFDF91CF911F91B4
:101ED0000F91FF90EF90DF90CF90BF90AF909F90C9
:101EE0008F900895A1E21A2EAA1BBB1BFD010DC005
:101EF000AA1FBB1FEE1FFF1FA217B307E407F507BA
:101F000020F0A21BB30BE40BF50B661F771F881F95
:101F1000991F1A9469F760957095809590959B012B
:101F2000AC01BD01CF010895EE0FFF1F0590F491A4
:101F3000E02D09940024A7FD00942A0F301D401DB8
:101F4000501D601D701D801D901D08952A153B05B4
:101F50004C055D056E057F058007910708950F9379
:101F60001F93CF93DF938230910510F482E090E0CD
:101F7000E091062CF091072C20E030E0A0E0B0E0EA
:101F8000309719F140815181028113814817590717
:101F9000C8F08417950769F4109731F012960C93E6
:101FA000129713961C9327C00093062C1093072CAE
:101FB00022C02115310519F04217530718F49A0170
:101FC000BD01EF01DF01F801DBCF21153105F9F08B
:101FD000281B390B2430310580F48A819B816115DF
:101FE000710521F0FB018283938304C08093062C4A
:101FF0009093072CFE01329644C0FE01E20FF31FBE
:102000008193919322503109288339833AC02091DA
:10201000042C3091052C232B41F42091022830917F
:1020200003282093042C3093052C20910028309114
:1020300001282115310541F42DB73EB74091042800
:1020400050910528241B350BE091042CF091052CB0
:10205000E217F307A0F42E1B3F0B2817390778F07F
:10206000AC014E5F5F4F2417350748F04E0F5F1FDE
:102070004093042C5093052C8193919302C0E0E08F
:10208000F0E0CF01DF91CF911F910F910895CF9391
:10209000DF93009709F481C0FC013297128213820A
:1020A000A091062CB091072C109781F420813181EA
:1020B000820F931F2091042C3091052C281739078B
:1020C00051F5E093042CF093052C67C0ED0120E05E
:1020D00030E0CE17DF0740F44A815B819E01411555
:1020E0005105F1F0EA01F5CFC283D38340815181DC
:1020F000840F951FC817D90759F488819981840FD7
:10210000951F0296808391838A819B81828393832A
:102110002115310529F4E093062CF093072C3DC0DE
:10212000E901EA83FB8349915991C40FD51FEC174C
:10213000FD0761F480819181840F951F0296E9016A
:1021400088839983828193818A839B83E0E0F0E096
:1021500012968D919C911397009719F0FD01DC0167
:10216000F7CF8D919C9111979D012E5F3F4F820F6C
:10217000931F2091042C3091052C2817390769F4FE
:10218000309729F41092062C1092072C02C012826C
:102190001382A093042CB093052CDF91CF91089566
:1021A000FB01DC0102C001900D9241505040D8F774
:0621B0000895F894FFCF32
:1021B6000204081020400000060A0C1830002D31D9
:1021C60001007D000000800000000000000190D0AA
:1021D60003000330000000000001020304050607A7
:1021E60008090A0B0C0E0F101112130008200840E4
:1021F6000800000010000140000540000910000A18
:1022060020000C20000E3000121000122000154095
:102216000B008100088100102100122100202100FE
:0C22260022210000120001120002120030
:102232000000082C20000000200000000000000028
:10224200000000000000000000000000000000008C
:10225200000000000000000000000020000000005C
:10226200000000000000000000000000000000006C
:10227200000000000000000000000000000020003C
:10228200000000000000000000000000000000004C
:10229200000000000000000000000000000000003C
:1022A200002000000000000000000000000000000C
:1022B200000000000000000000000000000000001C
:1022C20000000000200000000000000000000000EC
:1022D20000000000000000000000000000000000FC
:1022E20000000000000000200000000000000000CC
:1022F20000000000000000000000000000000000DC
:102302000000000000000000000A000100000000C0
:1023120000000000000000000000000000000000BB
:1023220000000000000000000000000000000000AB
:10233200000000000000000000000000000000009B
:10234200000000000000000000000000000000008B
:10235200000000000000000000000000000000007B
:10236200000000000000000000000000000000006B
:10237200000000000000000000000000000000005B
:10238200000000000000000000000000000000004B
:10239200000000000000000000000000000000003B
:1023A200000000000000000000000000000000002B
:1023B200000000000000000000000000000000001B
:1023C200000000000000000000000000000000000B
:1023D20000000000000000000000000000000000FB
:1023E20000000000000000000000000000000000EB
:1023F20000000000000000000000000000000000DB
:1024020000000000000000000000000000000000CA
:1024120000000000000000000000000000000000BA
:1024220000000000000000000000000000000000AA
:10243200000000000000000000000000000000009A
:10244200000000000000000000000000000000008A
:10245200000000000000000000000000000000007A
:10246200000000000000000000000000000000006A
:102472000000000000000068011F000000000000D2
:10248200000000000000000000000000000000004A
:10249200000000000000000000000000000000003A
:1024A200000000000000000000000000000000002A
:1024B200000000000000000000000000000000001A
:1024C200000000000000000000000000000000000A
:1024D20000000000000000000000000000000000FA
:1024E20000000000000000000000000000000000EA
:1024F20000000000000000000000000000000000DA
:1025020000000000000000000000000000000000C9
:1025120000000000000000000000000000000000B9
:1025220000000000000000000000000000000000A9
:102532000000000000000000000000000000000099
:102542000000000000000000000000000000000089
:102552000000000000000000000000000000000079
:102562000000000000000000000000000000000069
:102572000000000000000000000000000000000059
:102582000000000000000000000000000000000049
:102592000000000000000000000000000000000039
:1025A2000000000000000000000000000000000029
:1025B2000000000000000000000000000000000019
:1025C2000000000000000000000000000000000009
:1025D20000000000000000000000000000000000F9
:0C25E20000000000000068011F00000065
:00000001FF
