:100000000C9487000C94A4000C94A4000C94A400FD
:100010000C94A4000C94A4000C94A4000C947B0DEC
:100020000C94A4000C94A4000C94A4000C94A400C0
:100030000C94A4000C94A4000C94A4000C94A400B0
:100040000C94A4000C9492020C94A4000C94FE0254
:100050000C94A4000C94A4000C94A4000C94A40090
:100060000C94A4000C94A4000C9495030C94A4008C
:100070000C9401040C94A4000C94A4000C94980417
:100080000C94A4000C9404050C94A4000C94A400FB
:1000900020010A010C010A010E010A0110010A01E6
:1000A00012010A0114010A010A010A0116010A01DA
:1000B0000A010A010A010A010A010A0118010A01DA
:1000C0000A010A010A010A010A010A011A010A01C8
:1000D0000A010A010A010A010A010A010A010A01C8
:1000E0000A010A010A010A010A010A011C010A01A6
:1000F0000A010A010A010A010A010A010A010A01A8
:100100000A010A010A010A010A010A011E01112459
:100110001FBECFEFCDBFDFE3DEBF1FE2A0E0B8E23E
:10012000E7E8FFE102C005900D92A839B107D9F7C1
:1001300020E3A8E9BFE201C01D92AA33B207E1F7AC
:100140000E9415090C94AF0F0C940000CF93DF931D
:10015000CDB7DEB76D97CDBFDEBF8DE0E2E6FFE540
:10016000DE01119601900D928A95E1F780E1EFE6AC
:10017000FFE5DE011E9601900D928A95E1F7A0E65B
:10018000B0E0EC91E370F0E0EE0FFF1FEE0FFF1F09
:1001900021E030E02C0F3D1FE20FF31F65857685CF
:1001A0008785908911962C9120FF1BC0E0916100FA
:1001B000EE71F0E0F595E79521E030E02C0F3D1F62
:1001C000E20FF31F208130E040E050E00E944E0E2D
:1001D0002093982F3093992F40939A2F50939B2FD1
:1001E00008C06093982F7093992F80939A2F9093C3
:1001F0009B2F6D96CDBFDEBFDF91CF910895462F27
:1002000050E0FA013297EF33F10520F4E85BFF4F3D
:100210000C94700E2EEF15C023E013C021E111C025
:1002200025E00FC023E10DC025E10BC027E009C088
:1002300027E107C029E005C029E103C02BE001C088
:1002400021E0882319F0813081F00895E0E6F0E0A4
:10025000848D8F7C836198ED94BF848F0E94A6006B
:100260008091630086FFFCCF0895E0E6F0E0908186
:100270009F7788ED84BF908384BF218384BF828170
:100280008E7F82830E94A600809163008031E1F717
:100290000895FC019081292F2F7192959695977062
:1002A00081818370880F880F880F982B492F50E029
:1002B00030E0241B350B205E3F4F22303105B4F077
:1002C0009F5F292F2F719295990F907E80818F715A
:1002D000982B908326952695269591819C7F922B2D
:1002E0009183E40FF51F638381E0089580E0089512
:1002F000FC018081282F2F718295869587709181CE
:100300009370990F990F990F892B281779F081E035
:10031000820F982F9F718081807E892B8083E20FCE
:10032000F11D8381FB01808381E0089580E00895C1
:10033000CF92DF92EF92FF920F931F93CF93DF93B1
:100340008C01EB018881282F2F7130E0B9016D5F9E
:100350007F4F6C0F7D1F982F92959695977089818E
:100360008370880F880F880F892B90E0821B930B76
:1003700080968F719078992324F40197806E9F6FF7
:100380000196F42E841708F4F82E8A8190E0AC01CF
:10039000421B530B8F2D90E0481759070CF4CA01EC
:1003A000EF2CE81A6C01DD24A601C8010E94A60FFB
:1003B000BE016D5F7F4F4E2D50E0C8018C0D9D1D1D
:1003C0000E94A60F8881482F4F714F0D4F71807E7C
:1003D000F82EF42AF882DF91CF911F910F91FF90B0
:1003E000EF90DF90CF900895CF93DF93FC01908141
:1003F000892F8F7192959695977021812370220F86
:10040000220F220F292B90E0821B91094F968F71AA
:100410009078992324F40197806E9F6F0196B82FEE
:10042000A0E026C05081252F229526952770318186
:10043000832F8370880F880F880F822B91E0980F8D
:10044000292F2F719295990F907E5F71952B908334
:10045000269526952695932F9C7F922B9183EB01D1
:10046000CA0FD11D9881EF01C80FD11D9B83AF5FCB
:100470002A2F30E0842FB41708F48B2F90E0281730
:10048000390784F2DF91CF910895FC019081292FE3
:100490002F7192959695977081818370880F880F40
:1004A000880F982B30E0291B3109205E3F4F81E0F7
:1004B000223031050CF480E00895FC012081922F58
:1004C00092959695977081818370880F880F880F19
:1004D000892B2F7190E0821B910980968F71907803
:1004E000992324F40197806E9F6F01960895FC0173
:1004F0002081922F9F71229526952770818183708C
:10050000880F880F880F282B892F90E0821B910974
:100510004F968F719078992324F40197806E9F6F86
:10052000019608951F920F920FB60F9211241F93F8
:100530002F933F934F935F936F937F938F939F93EB
:10054000AF93BF93CF93DF93EF93FF938091060810
:1005500080FD0AC08091040887FF06C086E098E20B
:100560000E944502811119C080910408807880930F
:100570000408FF91EF91DF91CF91BF91AF919F91CF
:100580008F917F916F915F914F913F912F911F912B
:100590000F900FBE0F901F9018956091000886E095
:1005A00098E20E9449018091B42F8F5F8093B42F0D
:1005B0009091B02F8913D8CF80919C2F90919D2F2F
:1005C000892B91F286E098E20E945D02182F90E05C
:1005D0000E94850EEC01412F66E078E20E949801AE
:1005E000E0919C2FF0919D2F412FBE0180E0099555
:1005F000CE010E941D0F1092B42FB6CF1F920F9202
:100600000FB60F9211240F931F932F933F934F9385
:100610005F936F937F938F939F93AF93BF93EF936A
:10062000FF93CF93DF93CDB7DEB72597CDBFDEBF66
:100630001D828091060880FF1DC08091040880748F
:10064000809304082596CDBFDEBFDF91CF91FF9147
:10065000EF91BF91AF919F918F917F916F915F913A
:100660004F913F912F911F910F910F900FBE0F90BF
:100670001F901895BE016B5F7F4F8FE698E20E9436
:100680007801811147C01C8219821A821B82009155
:10069000A42F1091A52F0115110579F28FE698E28C
:1006A0000E947702282FAE014D5F5F4FBE016F5F42
:1006B0007F4FCE010496F801099569817A81611511
:1006C000710509F4BACF4B81442309F4B6CF8FE604
:1006D00098E20E94F40189819A8120910228309148
:1006E00003282817390738F4209100283091012871
:1006F00028173907B8F4BE016B5F7F4F8FE698E289
:100700000E947801882309F498CF8091040885FF1E
:10071000FCCF04C08091040885FF8FCF8D8180932A
:1007200002088BCF0E941D0FE6CF1F920F920FB6CB
:100730000F9211241F932F933F934F935F936F93C7
:100740007F938F939F93AF93BF93CF93DF93EF9359
:10075000FF938091260880FD0AC08091240887FFBE
:1007600006C089E298E20E944502811119C0809179
:100770002408807880932408FF91EF91DF91CF9136
:10078000BF91AF919F918F917F916F915F914F91A9
:100790003F912F911F910F900FBE0F901F901895B2
:1007A0006091200889E298E20E9449018091B52F6A
:1007B0008F5F8093B52F9091B12F8913D8CF8091FF
:1007C0009E2F90919F2F892B91F289E298E20E94AF
:1007D0005D02182F90E00E94850EEC01412F69E226
:1007E00078E20E949801E0919E2FF0919F2F412F77
:1007F000BE0180E00995CE010E941D0F1092B52F19
:10080000B6CF1F920F920FB60F9211240F931F9322
:100810002F933F934F935F936F937F938F939F9308
:10082000AF93BF93EF93FF93CF93DF93CDB7DEB733
:100830002597CDBFDEBF1D828091260880FF1DC099
:10084000809124088074809324082596CDBFDEBF54
:10085000DF91CF91FF91EF91BF91AF919F918F91D8
:100860007F916F915F914F913F912F911F910F91C8
:100870000F900FBE0F901F901895BE016B5F7F4FBA
:1008800082E998E20E947801811147C01C82198296
:100890001A821B820091A62F1091A72F0115110516
:1008A00079F282E998E20E947702282FAE014D5F2B
:1008B0005F4FBE016F5F7F4FCE010496F80109952F
:1008C00069817A816115710509F4BACF4B8144239E
:1008D00009F4B6CF82E998E20E94F40189819A81F5
:1008E00020910228309103282817390738F42091E5
:1008F00000283091012828173907B8F4BE016B5F32
:100900007F4F82E998E20E947801882309F498CF0A
:100910008091240885FFFCCF04C08091240885FFC6
:100920008FCF8D81809322088BCF0E941D0FE6CF41
:100930001F920F920FB60F9211241F932F933F9384
:100940004F935F936F937F938F939F93AF93BF93D7
:10095000CF93DF93EF93FF938091460880FD0AC009
:100960008091440887FF06C08CE498E20E9445020B
:10097000811119C080914408807880934408FF91C8
:10098000EF91DF91CF91BF91AF919F918F917F9127
:100990006F915F914F913F912F911F910F900FBEDB
:1009A0000F901F901895609140088CE498E20E9487
:1009B00049018091B62F8F5F8093B62F9091B22F0F
:1009C0008913D8CF8091A02F9091A12F892B91F2DC
:1009D0008CE498E20E945D02182F90E00E94850E40
:1009E000EC01412F6CE478E20E949801E091A02F85
:1009F000F091A12F412FBE0180E00995CE010E9408
:100A00001D0F1092B62FB6CF1F920F920FB60F92F6
:100A100011240F931F932F933F934F935F936F93E3
:100A20007F938F939F93AF93BF93EF93FF93CF9356
:100A3000DF93CDB7DEB72597CDBFDEBF1D82809196
:100A4000460880FF1DC0809144088074809344084C
:100A50002596CDBFDEBFDF91CF91FF91EF91BF9182
:100A6000AF919F918F917F916F915F914F913F9146
:100A70002F911F910F910F900FBE0F901F901895FF
:100A8000BE016B5F7F4F85EB98E20E947801811178
:100A900047C01C8219821A821B820091A82F1091D4
:100AA000A92F0115110579F285EB98E20E947702D2
:100AB000282FAE014D5F5F4FBE016F5F7F4FCE01AC
:100AC0000496F801099569817A816115710509F427
:100AD000BACF4B81442309F4B6CF85EB98E20E944C
:100AE000F40189819A8120910228309103282817E6
:100AF000390738F420910028309101282817390748
:100B0000B8F4BE016B5F7F4F85EB98E20E947801DD
:100B1000882309F498CF8091440885FFFCCF04C056
:100B20008091440885FF8FCF8D81809342088BCFC1
:100B30000E941D0FE6CF8F92AF92CF92EF920F934C
:100B4000CF93DF93CDB7DEB7A797CDBFDEBF8D8F35
:100B50004E8F5F8F68A379A32AA30BA3ECA2CDA22B
:100B6000AEA28FA28D8D882F90E0880F991F81589B
:100B7000904AFC01808191818C839D831E8A1F8A0B
:100B8000188E198E83E08A8F1B8E80EE95E0FC0113
:100B900082818C8F81E089838AA1883048F48AA180
:100BA000843018F08AA1863018F08BA1813318F0B8
:100BB00081E089831DC28C819D81892B09F418C233
:100BC0008DA1882309F44AC08091982F9091992F84
:100BD000A0919A2FB0919B2F2E8D3F8D48A159A1A6
:100BE000BC01CD010E944E0EDA01C901B695A79550
:100BF00097958795880F991FAA1FBB1F880F991F6C
:100C0000AA1FBB1F880F991FAA1FBB1F880F991F00
:100C1000AA1FBB1F880F991FAA1FBB1F880F991FF0
:100C2000AA1FBB1F8E839F83A887B9878FEF9FEF73
:100C30008A879B878A859B859C0140E050E08E8156
:100C40009F81A885B98582179307A407B50710F47B
:100C50009C01AD01C9018E8B9F8B42C08091982F62
:100C60009091992FA0919A2FB0919B2F880F991F47
:100C7000AA1FBB1F880F991FAA1FBB1F880F991F90
:100C8000AA1FBB1F2E8D3F8D48A159A1BC01CD01CC
:100C90000E944E0EDA01C9018C879D87AE87BF87FF
:100CA0008FEF9FEF888B998B888999899C0140E011
:100CB00050E08C859D85AE85BF8582179307A4077C
:100CC000B50710F49C01AD01C9018E8B9F8B8E89F5
:100CD0009F898034910520F480E490E08E8B9F8B77
:100CE0008AA1877087709A8D987F892B8A8F8BA1B4
:100CF00082958F70837083708295807F9A8D9F7CA0
:100D0000892B8A8F8DA1882329F08A8D8F73806427
:100D10008A8F03C08A8D8F738A8F8EA1882399F062
:100D2000888D8C7F8160888F898D8160898F8D8D82
:100D3000882F90E08455904D2FA1FC0120838A8D4F
:100D400088608A8F1AC0888D8C7F888F898D8E7F6E
:100D5000898F8D8D882F90E08455904DFC011082F5
:100D60008CA186958695869581708170880F880FF5
:100D7000880F9A8D977F892B8A8F9DA181E0892783
:100D8000882321F0898D897F8260898F80EE95E0AC
:100D9000FC0182818C8F8D8D882F90E081309105B0
:100DA000B9F0823091051CF4892B39F02DC08230C6
:100DB0009105C1F0039701F127C089A9837082953D
:100DC000880F880F807C9C8D9F73892B8C8F1CC013
:100DD00089A9837083708295807F9C8D9F7C892BED
:100DE0008C8F12C089A983708370880F880F9C8DA7
:100DF000937F892B8C8F08C089A9837083709C8D09
:100E00009C7F892B8C8F0000898D8068898F898DCC
:100E10008064898F888D8068888F888D8064888FB2
:100E200080EE95E02C8DFC012283288D8C819D81A4
:100E3000FC012583298D8C819D81FC0126832A8DCF
:100E40008C819D81FC0127832B8D8C819D81FC01F0
:100E500022872E893F898C819D81FC0120873187E3
:100E60008C819D81FC0113868C819D81FC011486FF
:100E70008C819D81FC0115868C819D81FC011686EB
:100E80001A821B82000080E090E1FC018281882FA1
:100E900090E082709927892BB1F78D8D882F90E093
:100EA000805090409C5EFC0180818A8B000080E035
:100EB00090E1FC018281882F90E082709927892B34
:100EC000B1F789A9882F90E08C5E9F4F9C5EFC0152
:100ED00080818B8B000080E090E1FC018281882F73
:100EE00090E082709927892BB1F78D8D882F90E043
:100EF0008C5F9F4F9C5EFC0180818C8B000080E0AA
:100F000090E1FC018281882F90E082709927892BE3
:100F1000B1F78D8D882F90E0885F9F4F9C5EFC011C
:100F200080818D8B8DA18823A1F0000080E090E16D
:100F3000FC018281882F90E082709927892BB1F77C
:100F40008D8D882F90E0845F9F4F9C5EFC01808197
:100F50008A838EA18823A1F0000080E090E1FC014B
:100F60008281882F90E082709927892BB1F78D8D2F
:100F7000882F90E0805F9F4F9C5EFC0180818B8377
:100F80008B898F3F99F18A898F3F81F120E034E08E
:100F90008A89882F90E05C894A81542B4B81542B9D
:100FA0004B894523880F991F82959295907F9827AA
:100FB000807F9827820F931F0196FC01408320E0D9
:100FC00034E08A89882F90E05D894B894523880F1A
:100FD000991F82959295907F9827807F9827820FFE
:100FE000931F0296FC014083198202C081E089832D
:100FF0008981A796CDBFDEBFDF91CF910F91EF9092
:10100000CF90AF908F900895CF93DF93E82FF0E0CB
:10101000DF01AA0FBB1FA158B04ACD91DC91411549
:101020005105C9F12223C9F1BA0183E28E9FD00193
:101030008F9FB00D1124A159B74D8C91382F3F715E
:1010400082958695877011969C919370990F990F50
:10105000990F892B381312C0DA018D91BD018A8353
:101060004FEF420F33E23E9FC0013F9F900D11248E
:101070008159974D0E94F40181E010C033E23E9FF8
:10108000C0013F9F900D1124422F8159974D0E941E
:10109000F40181E003C080E001C080E0DF91CF91E6
:1010A00008956115710541F0E82FF0E0EE0FFF1F84
:1010B000E456F04D6083718308956115710541F028
:1010C000E82FF0E0EE0FFF1FEC55F04D60837183C9
:1010D0000895E82FF0E0E055F04D608308950F93F8
:1010E0001F93CF93DF93CDB7DEB72597CDBFDEBF7C
:1010F00068ED78E288EB9FE20E94A00A91E08111FE
:1011000090E0998380E390E08A839B838C839D8326
:101110008981882309F44FC06091D8287091D9281B
:1011200088EB9FE20E94490A68EE73E080E090E05D
:101130000E94F40CE091D828F091D9289F01ADECE1
:10114000BCEC0E94760EAC01569547955695479596
:10115000569547958A819B81840F951F8A839B832F
:10116000CA01880F991F440F551F440F551F440F84
:10117000551F480F591FE41BF50B8C819D81E80F0B
:10118000F91FEC83FD838A819B8108EB1FE2F80144
:1011900080838C819D81818362E070E0C8010E9420
:1011A000490A84E690E08093D8289093D928F801E2
:1011B00011928A95E9F72596CDBFDEBFDF91CF91D9
:1011C0001F910F9108958F92AF92CF92EF920F934C
:1011D0001F9361E081E00E94FF0060E074E081E025
:1011E0000E94C70B1F921F921F92812CA12C0F2EC1
:1011F000F0E3CF2EF02D0F2EF3E0EF2EF02D00E0D8
:101200001CE221E030E041E064E873E084E893E030
:101210000E94240B78940F900F900F901F910F91C4
:10122000EF90CF90AF908F900895CF93DF931F9260
:10123000CDB7DEB70E94E308198289818F5F898369
:101240000E946F08FACF203208F02FE180918D2F95
:1012500090918E2F892BD1F140918D2F50918E2F0F
:10126000822F90E048175907B0F4ADE8BFE22D9106
:101270003C911197EFE8FFE2408151811D921C9251
:1012800010821182475D504D8091932F60E08370F2
:101290000E9404081BC0EFE8FFE240815181ADE8E5
:1012A000BFE26D917C911197681B790B6D937C93D4
:1012B00060817181860F971F80839183475D504DB8
:1012C0008091932F60E083700E94040881E008956C
:1012D0001F93CF93DF93EB01142F8091932F837093
:1012E0000E94E60C672B682B692B09F481C0809162
:1012F000222F9091232F612F70E0860F971F80324D
:101300009340F0F038C03091282F822F90E0E09188
:10131000222FF091232FAC014E0F5F1FFE01E80F2B
:10132000F91F8081A0E2B3E03A9FF0013B9FF00DEE
:101330001124E652F74DE40FF51F84832F5F01C09F
:1013400020E0211700F3A2E2BFE28D919C9111975A
:10135000680F791F6D937C931197E091282FF0E02F
:101360008D919C91EE5DFC4FEE0FFF1FE652F74D05
:101370008083918337C08091222F9091232FA0E208
:10138000A81B40E01CC05091282F242F30E0E09192
:10139000222FF091232FC9018E0F9F1FFE01E20F14
:1013A000F31F208160E273E0569FF001579FF00D1C
:1013B0001124E652F74DE80FF91F24834F5F4A17B7
:1013C00010F31092222F1092232FE091282FF0E09B
:1013D000EE5DFC4FEE0FFF1FE652F74D80E293E00B
:1013E00080839183E3E9FFE280818064808343C04E
:1013F0001092222F1092232F8091932F82958F701D
:1014000083708230F1F437C05091282F242F30E0C0
:10141000E091222FF091232FC9018E0F9F1FFE0113
:10142000E20FF31F208160E273E0569FF001579FA7
:10143000F00D1124E652F74DE80FF91F24834F5F9A
:1014400001C040E0411700F3A2E2BFE28D919C9100
:101450001197810F911D8D939C931197E091282FE7
:10146000F0E08D919C91EE5DFC4FEE0FFF1FE65278
:10147000F74D808391838091932F40E251E060E0AB
:1014800070E083700E94890C80E0DF91CF911F9102
:1014900008959C018091912F9091922F8617970724
:1014A00008F44AC02115310509F448C080918D2FF8
:1014B00090918E2F892BD1F740E050E00AC0F901BE
:1014C000E40FF51F9081FA01E75DF04D90834F5FC7
:1014D0005F4F4617570798F39B01EDE8FFE26083E3
:1014E0007183808191814F9770F410928D2F1092AB
:1014F0008E2F8091932F49E25FE260E083700E941B
:10150000040880E00895EDE8FFE2808191814F9723
:1015100080839183EFE8FFE2808191814F96808301
:1015200091838091932F2FE149E25FE260E0837025
:101530000E94040880E0089582E0089583E0089501
:101540000F931F93CF93DF93009709F473C0FB01B0
:10155000408151812091242F3091252F2417350768
:1015600008F46AC08B01EC018091932F82958F70F3
:10157000837009F463C08091932F83700E94E60CFE
:10158000672B682B692BB9F7E091272FF0E0EE5D10
:10159000FC4FEE0FFF1FE652F74D80819181F8015D
:1015A0008083918320E030E014C0DE01A20FB31FDE
:1015B0004091272F80E293E0489FF001499FF00D72
:1015C0001124E652F74DE20FF31F84818C932F5FB5
:1015D0003F4FF801808191812817390730F3A7E246
:1015E000BFE2EC91F0E0EE5DFC4FEE0FFF1FE65224
:1015F000F74D108211828C9190E001968170907865
:10160000992324F401978E6F9F6F0196E7E2FFE222
:10161000808320819091282F81E0291301C080E0F0
:10162000E3E9FFE28295807F90819F7C892B808314
:1016300080E005C083E003C082E001C087E0DF9165
:10164000CF911F910F9108956F927F928F92AF92D9
:10165000CF92EF92FF920F931F93CF93DF93CDB76B
:10166000DEB7F42EB901A8012E2D0C2DEA2CC82CC2
:101670000F2EF0E46F2EF6E07F2EF02DEEEDF8E267
:10168000DF01C3011D920197E9F784E6E9E2FFE279
:10169000DF011D928A95E9F784E0EEE1FFE2DF01C8
:1016A0001D928A95E9F79F2D93700F2EF3E96F2E07
:1016B000FFE27F2EF02DF30180818C7F892B8083C8
:1016C00088898F938F84AE848F2D0E949B05182F5D
:1016D00063E279E08F2D0E945D0861E08F2D0E940A
:1016E000690868E679E08F2D0E94510881E0812722
:1016F000D3019C9180FB92F99C938C9140E251E044
:1017000060E070E083700E94890C8AED98E20E948C
:101710007F0C0F90111102C080E001C085E0DF91C5
:10172000CF911F910F91FF90EF90CF90AF908F903E
:101730007F906F90089580E012C0E82FF0E0EE0FE8
:10174000FF1FEE0FFF1FE25DFF4C1082118212821D
:1017500093819078938393819F7793838F5F823077
:1017600060F3089590E00DC0292F30E0F901EE0FED
:10177000FF1FEE0FFF1FEF5CFF4C808188232CF4CE
:101780009F5F923088F32FEF3FEF822F0895EF9203
:10179000FF920F931F93CF93C82F8B01E091942F4B
:1017A000F091952F82858E7F82870E949B0B80E02F
:1017B0000DC0E82FF0E0EE0FFF1FEE0FFF1FE45EFD
:1017C000FF4C10821182128213828F5F843088F363
:1017D00001151105B9F003301105B9F0C8010597DD
:1017E00083309105A8F0049787309105A0F0089701
:1017F0008F97A0F0015411090F3B110590F420E0E0
:1018000031E011C021E030E00EC024E030E00BC038
:1018100028E030E008C020E130E005C020E430E0FE
:1018200002C020E034E02830310511F150F42230BC
:101830003105D1F024303105C9F02130310511F5E1
:1018400011C020343105C1F020F42031310591F070
:1018500019C0211581E0380789F0211584E0380787
:1018600079F010C010E00FC012E00DC014E00BC002
:1018700016E009C018E007C01AE005C01CE003C06C
:101880001EE001C010E01160C093972F6091982F67
:101890007091992F80919A2F90919B2F40E050E06A
:1018A0000E944E0EEC2FF0E0E29F7001E39FF00CDF
:1018B000F29FF00C112421E0672B682B692B09F4AF
:1018C00020E0E4E9FFE2A081B181C701820F911D10
:1018D00096968D939C939797A6E9BFE28C91816031
:1018E0008C93A081B1811C930190F081E02D81E067
:1018F0008287CF911F910F91FF90EF9008950097ED
:1019000031F080932C3090932D3080E0089583E067
:1019100008958F929F92AF92BF92CF92DF92EF92F3
:10192000FF920F931F93CF93DF934A015B01837064
:1019300004E91FE2D801ED91FC91119792859E7FF9
:101940009287C82FD0E013962C9130E040E050E011
:10195000C501B4010E944E0E69017A01F80123818C
:1019600030E040E050E0C501B4010E944E0EDC01C1
:10197000CB018C0D9D1DAE1DBF1D01E010E020E0D0
:1019800030E0892B8A2B8B2B19F400E010E09801B2
:10199000CC0FDD1FCC0FDD1FC45EDF4C0883198325
:1019A0002A833B83E091942FF091952F828581606B
:1019B0008287DF91CF911F910F91FF90EF90DF9081
:1019C000CF90BF90AF909F908F9008958370E82F35
:1019D000F0E0EE0FFF1FEE0FFF1FE45EFF4C608193
:1019E00071818281938108958F929F92AF92BF926D
:1019F000CF92DF92EF92FF920F931F93CF93DF93DB
:101A00006B017C010E94B20B8F3F09F466C004E9B0
:101A10001FE2D801ED91FC91119792859E7F9287EC
:101A2000C82F880FDD0BFE01EE0FFF1FEE0FFF1F0B
:101A3000E25DFF4C83818068838313962C9130E0B4
:101A400040E050E0C701B6010E944E0E49015A0124
:101A5000F801238130E040E050E0C701B6010E9468
:101A60004E0EAB01BC01480D591D6A1D7B1D81E066
:101A700090E0A0E0B0E0452B462B472B19F480E026
:101A800090E0DC01BF77FE01EE0FFF1FEE0FFF1F9E
:101A9000E25DFF4C80839183A2839B2F9F7783819C
:101AA0008078892B8383E091942FF091952F828504
:101AB00081608287FE01EE0FFF1FEE0FFF1FE25DC8
:101AC000FF4C4081518162819381792F7F77452B33
:101AD000462B472B79F780E001C086E0DF91CF915C
:101AE0001F910F91FF90EF90DF90CF90BF90AF903C
:101AF0009F908F9008951F920F920FB60F9211240E
:101B00002F933F934F935F936F937F938F939F9305
:101B1000EF93FF9380E090E0A7C0181619060CF42D
:101B200041C0FC01EE0FFF1FEE0FFF1FEF5CFF4CEB
:101B300020812223DCF4FC01EE0FFF1FEE0FFF1FBC
:101B4000E25DFF4C4081518162812381722F7F775A
:101B500041505109610970487F7740835183628306
:101B6000372F3F7723812078232B2383FC01EE0F2F
:101B7000FF1FEE0FFF1FE25DFF4C4081518162812C
:101B80002381722F7F77452B462B472B59F4FC017D
:101B9000FF27EE0FFF1FEE0FFF1FE25DFF4C2381BB
:101BA0002F772383833091050CF05DC0FC01EE0F8D
:101BB000FF1FEE0FFF1FE45EFF4C408151816281E9
:101BC0007381452B462B472BA1F0FC01EE0FFF1F25
:101BD000EE0FFF1FE45EFF4C4081518162817381F3
:101BE00041505109610971094083518362837383B4
:101BF0003AC020912C3030912D30F901E25BF94F41
:101C0000E081F0E0EE5DFC4FEE0FFF1FE20FF31FEF
:101C100040815181452B39F1F901E25BF94F408157
:101C200050E04F5F5F4F41705078552334F441507E
:101C300051094E6F5F6F4F5F5F4FF901E25BF94FE4
:101C40004083508131974081541302C042E001C06B
:101C500041E0F901E754F94F342F3295307F20816C
:101C60002F7C232B20830196843091050CF455CFD3
:101C7000E091942FF091952F838581608387FF9168
:101C8000EF919F918F917F916F915F914F913F91D4
:101C90002F910F900FBE0F901F901895A1E21A2E52
:101CA000AA1BBB1BFD010DC0AA1FBB1FEE1FFF1F00
:101CB000A217B307E407F50720F0A21BB30BE40B50
:101CC000F50B661F771F881F991F1A9469F7609597
:101CD0007095809590959B01AC01BD01CF01089551
:101CE000EE0FFF1F0590F491E02D0994A29FB00123
:101CF000B39FC001A39F700D811D1124911DB29F40
:101D0000700D811D1124911D08950F931F93CF9382
:101D1000DF938230910510F482E090E0E09138305A
:101D2000F091393020E030E0A0E0B0E0309719F1D8
:101D3000408151810281138148175907C8F08417E7
:101D4000950769F4109731F012960C931297139639
:101D50001C9327C0009338301093393022C02115CE
:101D6000310519F04217530718F49A01BD01EF012C
:101D7000DF01F801DBCF21153105F9F0281B390B04
:101D80002430310580F48A819B816115710521F031
:101D9000FB018283938304C0809338309093393061
:101DA000FE01329644C0FE01E20FF31F819391932E
:101DB00022503109288339833AC02091363030913E
:101DC0003730232B41F420910228309103282093AF
:101DD000363030933730209100283091012821157A
:101DE000310541F42DB73EB74091042850910528A4
:101DF000241B350BE0913630F0913730E217F307B2
:101E0000A0F42E1B3F0B2817390778F0AC014E5F6A
:101E10005F4F2417350748F04E0F5F1F4093363051
:101E2000509337308193919302C0E0E0F0E0CF010E
:101E3000DF91CF911F910F910895CF93DF9300977A
:101E400009F481C0FC01329712821382A0913830CC
:101E5000B0913930109781F420813181820F931F26
:101E600020913630309137302817390751F5E093FB
:101E70003630F093373067C0ED0120E030E0CE1708
:101E8000DF0740F44A815B819E0141155105F1F065
:101E9000EA01F5CFC283D38340815181840F951F1E
:101EA000C817D90759F488819981840F951F029624
:101EB000808391838A819B8182839383211531055D
:101EC00029F4E0933830F09339303DC0E901EA83DA
:101ED000FB8349915991C40FD51FEC17FD0761F49D
:101EE00080819181840F951F0296E90188839983EF
:101EF000828193818A839B83E0E0F0E012968D914A
:101F00009C911397009719F0FD01DC01F7CF8D919B
:101F10009C9111979D012E5F3F4F820F931F20913F
:101F20003630309137302817390769F4309729F463
:101F3000109238301092393002C012821382A0936E
:101F40003630B0933730DF91CF910895FB01DC013B
:101F500002C001900D9241505040D8F70895F89476
:021F6000FFCFB1
:101F62000204081020400000060A0C1830002D312F
:101F720001007D0000008000000000000000082039
:051F820008400800000A
:101F870000003A30200000002000000000000000A0
:101F9700000000000000000000000000000000003A
:101FA700000000000000000000000020000000000A
:101FB700000000000000000000000000000000001A
:101FC70000000000000000000000000000002000EA
:101FD70000000000000000000000000000000000FA
:101FE70000000000000000000000000000000000EA
:101FF70000200000000000000000000000000000BA
:1020070000000000000000000000000000000000C9
:102017000000000020000000000000000000000099
:1020270000000000000000000000000000000000A9
:102037000000000000000020000000000000000079
:102047000000000000000000000000000000000089
:102057000000000000000000640000000000000015
:102067000000000000000000000000000000000069
:102077000000000000000000000000000000000059
:102087000000000000000000000000000000000049
:102097000000000000000000000000000000000039
:1026A70000000000200302000000000000000000FE
:1026B7000000000000000000000000000000000013
:1026C7000000000000000000000000000000000003
:1026D70000000000000000000000000000000000F3
:1026E70000000000000000000000000000000000E3
:1026F70000000000000000000000000000000000D3
:1027070000000000000000000000000000000000C2
:0827170000640000000A00014B
:00000001FF
