:1000000018C0BCC338C1BAC3B9C3B8C3B7C3B6C339
:10001000B5C3B4C30FC3B2C3B1C3B0C33CC0006067
:1000200000AD8000AD00AE00078600AE00B58000D8
:10003000150211241FBECFE5D2E0DEBFCDBFEEE139
:10004000F0E040E017C0B591A5913591259105915B
:1000500007FD0CC095918591EF01F92FE82F0590D0
:100060000D92A217B307D9F7FE0104C01D92A21783
:10007000B307E1F7EF32F40731F710E0C9E1D0E060
:1000800003C02197FE0174D3C831D107D1F798D1AD
:0600900068C3F894FFCFE5
:100096001F921FB61F9211248F93EF93FF9380EE4A
:1000A6008EB98091B4008770843009F489C028F431
:1000B600823051F0833061F1D4C0853009F493C0A9
:1000C600863009F4A3C0CDC08091B400887F8360D8
:1000D6008093B4008091AE00803168F4E091B00066
:1000E600F0E080B3EE0FFF1FE05AFF4F80838EB122
:1000F6008D608EB905C08091B40080618093B40094
:100106008091B40083FFADC08FB181708FB9A9C053
:10011600809B18C08091B40084FD14C0E091B000AB
:10012600F0E080B3EE0FFF1FE05AFF4F818380910E
:10013600B0008F5F8F708093B0008091AE008F5FAC
:100146008093AE008091B40083FF12C08091B4000A
:10015600887F84608093B4008EB18E608EB98FB133
:100166008F678FB98091B400877F8093B40021C0D8
:100176008091B1008823A1F08091B400887F8560CA
:100186008093B400E091B200F0E0EE0FFF1FE0585C
:10019600FF4F80818FB98EB189608EB9B99A09C037
:1001A6008091B400887F8093B40013BE1DB8C19AB5
:1001B600B99880E28ABF8BB780628BBFA89A51C07C
:1001C6008091B400887F85608093B400E091B2008E
:1001D600F0E0EE0FFF1FE058FF4F80818FB98EB120
:1001E60089608EB93EC08091B400887F8660809316
:1001F600B400E091B200F0E0EE0FFF1FE058FF4FB1
:1002060081818FB98EB18C608EB92BC08091B2007E
:100216008F5F8F708093B2008091B1008150809380
:10022600B1008091B100882399F08091B400887F55
:1002360085608093B400E091B200F0E0EE0FFF1FFE
:10024600E058FF4F80818FB98EB189608EB909C0A1
:100256008091B400887F8093B40013BEC19AB99888
:100266001DB8FF91EF918F911F901FBE1F9018959B
:100276001F921FB61F9211248F93B09950C0809180
:10028600B4008770843049F08091B400877085305F
:1002960031F48EB18F70893011F4B99828C08091ED
:1002A600B4008770863089F48EB18F708F3069F410
:1002B6008091B2008F5F8F708093B2008091B10001
:1002C60081508093B100B99812C08091B4008770B4
:1002D600853029F08091B4008770863041F48FB163
:1002E60081708FB98091B40088608093B40083B721
:1002F600877019F482E08ABD83BF12BE87E289BD8A
:1003060088B7806188BF89B7806189BF8BB78F7DC9
:100316008BBF8091B400887F81608093B4008F91F9
:080326001F901FBE1F901895E7
:10032E00ECD19091B1009031E1F3E091B300F0E0A7
:10033E00982F969596959068EE0FFF1FE058FF4FF9
:10034E009083E091B300F0E08295880F807E8F61FC
:10035E00EE0FFF1FE058FF4F81838091B3008F5F38
:10036E008F708093B3008091B1008F5F8093B10046
:10037E008091B4008770E1F4F89482E08ABD83BF67
:10038E0012BE87E689BD84E58DB9E091B200F0E03A
:10039E00EE0FFF1FE058FF4F80818FB989EE8EB9A7
:1003AE00B99A8091B400887F85608093B400789468
:0203BE000895A0
:1003C00000007BD1E6D0882319F08AEA8093AD0043
:1003D000BA9AC29AA9D150D1000014E0D1E0BAD1A2
:1003E0008823E9F0ABD0C82F8091AA00811108C002
:1003F000CA35A9F4D093AA008091AD0098DF0FC050
:100400008C2F70D1882359F0CBBD88B3812788BB4E
:10041000D093A900D093AA008091AD0088DF35D099
:0A0420008823E9F25FD0DED0DACFC6
:10042A000F931F93CF9360E070E080E085D1C82FCF
:10043A000091A4001091A500082B1093A500009329
:10044A00A40061E070E080E077D1C80F182B109308
:10045A00A5000093A40062E070E080E06DD1182F3F
:10046A00C80F63E070E080E067D1C195C81304C08B
:10047A0011BF81E08093A600CF911F910F9108953B
:10048A0008B602FE28C088B7846088BF8091A000A1
:10049A009091A100A091A200B091A3000196A11D84
:1004AA00B11D8C352BE29207A105B10550F480935A
:1004BA00A0009093A100A093A200B093A30080E0B3
:1004CA0008951092A0001092A1001092A20010921A
:0A04DA00A30081E0089580E008957A
:1004E4008091AA00813019F08230C1F00895809182
:1004F400A900882329F01092A8001092A900089559
:10050400C2988091A8008F5F8093A8008A3098F0E9
:100514008AE58BBD82E08093AA0008958091A700AC
:100524008F5F8093A7008A3030F098B384E08927E6
:0805340088BB1092A700089596
:10053C008091AE008823E1F3E091AF00F0E0EE0F84
:10054C00FF1FE05AFF4F8081E091AF00F0E0EE0F0B
:10055C00FF1FE05AFF4F91819F709695880F880F6F
:10056C00892BCCD09091AF009F5F9F709093AF0080
:10057C009091AE0091509093AE009091B4009F7EFC
:06058C009093B4000895F5
:10059200BB98C39A2FE73BE288E12150304080406C
:1005A200E1F700C0000081E080FF03C0B39B03C0FD
:1005B20012C0B39B12C0863091F09FE324E834E06E
:1005C200915020403040E1F700C000008F5F87303B
:1005D20059F781E0089580E0089580E0089581E070
:0205E20008957A
:1005E400B39913C08091AD008A3A79F41092AB00AC
:1005F4008091AC008F5F8093AC008530C0F08AE5B9
:100604008BBD8CEC8093AD000895B39B10C080919A
:10061400AD008C3C61F41092AC008091AB008F5F14
:100624008093AB00833018F08AEA8093AD0008957C
:100634001F921FB61F9211248F9312BE87E689BDA5
:100644008091B40083FF04C08FB181708FB902C060
:1006540084E58DB98AEE8EB989B78F7E89BF809182
:10066400B400887F82608093B4008F911F901FBE76
:040674001F90189526
:100678008091B4008770E1F7F89488B3836088BBF1
:10068800B9981DB880E28ABF8BB780628BBFA89AE1
:100698008091B400887F8093B4008091B400877FF4
:1006A8008093B4008091B4008F7E8093B4007894D6
:0206B8000895A3
:1006BA0087B5826087BD07B400FEFDCF87B5846029
:1006CA0087BD8CB580668CBD8FEF8DBD8AE58BBDED
:0A06DA00BC9A80B7816080BF0895CC
:1006E40098EE980F9D3248F08A3549F0805791E092
:1006F4008C3708F090E0892F03C081E001C081E0CD
:040704008170089563
:10070800982F96959575880F8A7A982B892F8695B4
:1007180086958373990F990F9C7C892B82950895F0
:100728001092AF001092B0001092AE001092B2007A
:0A0738001092B3001092B100089572
:10074200CB01E199FECF9FBB8EBBE09A99278DB377
:02075200089508
:0E0754009091AE0081E0911101C080E0089507
:0E076200EC010DD00BD0CE010BD0CE010AD091
:0C077000EE0FFF1F0590F491E02D09949E
:02077C0041CC6E
:02077E000895DC
:020780000895DA
:020782000895D8
:0207840086DC11
:01078600BBB7
:00000001FF
