S0190000446174656E6672616D652074657374656E2E7372656361
S11300000C9448000C9465000C9465000C946500F5
S11300100C9465000C9465000C9465000C94BA046F
S11300200C9465000C9465000C9465000C946500B8
S11300300C9465000C9465000C9465000C946500A8
S11300400C9465000C94B0010C9465000C941C0293
S11300500C9465000C9465000C9465000C94650088
S11300600C9465000C9465000C94B3020C94650028
S11300700C941F030C9465000C9465000C94B60357
S11300800C9465000C9422040C9465000C94650097
S113009011241FBECFEFCDBFDFE3DEBF18E2A0E027
S11300A0B8E2E8EAFCE002C005900D92AC3DB1076D
S11300B0D9F729E2ACEDB8E201C01D92A030B20735
S11300C0E1F70E94B9040C9452060C940000FC0160
S11300D09081292F2F7192959695977081818370C5
S11300E0880F880F880F982B492F50E030E0241B8D
S11300F0350B205E3F4F22303105B4F09F5F292F2E
S11301002F719295990F907E80818F71982B908397
S113011026952695269591819C7F922B9183E40FB9
S1130120F51F638381E0089580E00895FC018081D8
S1130130282F2F7182958695877091819370990FDE
S1130140990F990F892B281779F081E0820F982F46
S11301509F718081807E892B8083E20FF11D8381D2
S1130160FB01808381E0089580E00895CF92DF92BF
S1130170EF92FF920F931F93CF93DF938C01EB01C8
S11301808881282F2F7130E0B9016D5F7F4F6C0F8C
S11301907D1F982F92959695977089818370880F0B
S11301A0880F880F892B90E0821B930B80968F71A8
S11301B09078992324F40197806E9F6F0196F42E12
S11301C0841708F4F82E8A8190E0AC01421B530B8B
S11301D08F2D90E0481759070CF4CA01EF2CE81A48
S11301E06C01DD24A601C8010E944906BE016D5FB1
S11301F07F4F4E2D50E0C8018C0D9D1D0E94490675
S11302008881482F4F714F0D4F71807EF82EF42A4C
S1130210F882DF91CF911F910F91FF90EF90DF90C3
S1130220CF900895CF93DF93FC019081892F8F7134
S113023092959695977021812370220F220F220F99
S1130240292B90E0821B91094F968F719078992306
S113025024F40197806E9F6F0196B82FA0E026C00A
S11302605081252F2295269527703181832F837005
S1130270880F880F880F822B91E0980F292F2F71F8
S11302809295990F907E5F71952B90832695269574
S11302902695932F9C7F922B9183EB01CA0FD11D3E
S11302A09881EF01C80FD11D9B83AF5F2A2F30E0E7
S11302B0842FB41708F48B2F90E02817390784F2A1
S11302C0DF91CF910895FC019081292F2F71929590
S11302D09695977081818370880F880F880F982B6B
S11302E030E0291B3109205E3F4F81E02230310587
S11302F00CF480E00895FC012081922F929596954C
S1130300977081818370880F880F880F892B2F71D4
S113031090E0821B910980968F719078992324F440
S11303200197806E9F6F01960895FC012081922FA2
S11303309F7122952695277081818370880F880F7D
S1130340880F282B892F90E0821B91094F968F717B
S11303509078992324F40197806E9F6F01960895F5
S11303601F920F920FB60F9211241F932F933F9356
S11303704F935F936F937F938F939F93AF93BF93A9
S1130380CF93DF93EF93FF938091060880FD0AC01B
S11303908091040887FF06C086E098E20E9463010A
S11303A0811119C080910408807880930408FF911A
S11303B0EF91DF91CF91BF91AF919F918F917F91F9
S11303C06F915F914F913F912F911F910F900FBEAD
S11303D00F901F9018956091000886E098E20E94A3
S11303E067008091F0288F5F8093F0289091EC282B
S11303F08913D8CF8091DC289091DD28892B91F244
S113040086E098E20E947B01182F90E00E94280564
S1130410EC01412F66E078E20E94B600E091DC280E
S1130420F091DD28412FBE0180E00995CE010E94A4
S1130430C0051092F028B6CF1F920F920FB60F92FC
S113044011240F931F932F933F934F935F936F93B5
S11304507F938F939F93AF93BF93EF93FF93CF9328
S1130460DF93CDB7DEB72597CDBFDEBF1D82809168
S1130470060880FF1DC080910408807480930408DE
S11304802596CDBFDEBFDF91CF91FF91EF91BF9154
S1130490AF919F918F917F916F915F914F913F9118
S11304A02F911F910F910F900FBE0F901F901895D1
S11304B0BE016B5F7F4F8FE698E20E949600811128
S11304C047C01C8219821A821B820091E428109171
S11304D0E5280115110579F28FE698E20E9495014D
S11304E0282FAE014D5F5F4FBE016F5F7F4FCE017E
S11304F00496F801099569817A816115710509F4F9
S1130500BACF4B81442309F4B6CF8FE698E20E9418
S1130510120189819A812091022830910328281799
S1130520390738F420910028309101282817390719
S1130530B8F4BE016B5F7F4F8FE698E20E9496008D
S1130540882309F498CF8091040885FFFCCF04C068
S11305508091040885FF8FCF8D81809302088BCF13
S11305600E94C005E6CF1F920F920FB60F9211247E
S11305701F932F933F934F935F936F937F938F9327
S11305809F93AF93BF93CF93DF93EF93FF938091A8
S1130590260880FD0AC08091240887FF06C089E2EE
S11305A098E20E946301811119C080912408807827
S11305B080932408FF91EF91DF91CF91BF91AF9188
S11305C09F918F917F916F915F914F913F912F9167
S11305D01F910F900FBE0F901F90189560912008E7
S11305E089E298E20E9467008091F1288F5F8093EE
S11305F0F1289091ED288913D8CF8091DE2890912D
S1130600DF28892B91F289E298E20E947B01182F5E
S113061090E00E942805EC01412F69E278E20E94F3
S1130620B600E091DE28F091DF28412FBE0180E082
S11306300995CE010E94C0051092F128B6CF1F92F1
S11306400F920FB60F9211240F931F932F933F9382
S11306504F935F936F937F938F939F93AF93BF93C6
S1130660EF93FF93CF93DF93CDB7DEB72597CDBF3D
S1130670DEBF1D828091260880FF1DC08091240862
S11306808074809324082596CDBFDEBFDF91CF917F
S1130690FF91EF91BF91AF919F918F917F916F9156
S11306A05F914F913F912F911F910F910F900FBE2A
S11306B00F901F901895BE016B5F7F4F82E998E2FF
S11306C00E949600811147C01C8219821A821B82E3
S11306D00091E6281091E7280115110579F282E9C5
S11306E098E20E949501282FAE014D5F5F4FBE0135
S11306F06F5F7F4FCE010496F801099569817A8175
S11307006115710509F4BACF4B81442309F4B6CFBE
S113071082E998E20E94120189819A81209102283B
S1130720309103282817390738F420910028309194
S1130730012828173907B8F4BE016B5F7F4F82E99F
S113074098E20E949600882309F498CF80912408A7
S113075085FFFCCF04C08091240885FF8FCF8D8155
S1130760809322088BCF0E94C005E6CF1F920F9280
S11307700FB60F9211241F932F933F934F935F93C0
S11307806F937F938F939F93AF93BF93CF93DF9395
S1130790EF93FF938091460880FD0AC0809144083E
S11307A087FF06C08CE498E20E946301811119C09E
S11307B080914408807880934408FF91EF91DF9101
S11307C0CF91BF91AF919F918F917F916F915F91E5
S11307D04F913F912F911F910F900FBE0F901F903B
S11307E01895609140088CE498E20E94670080911B
S11307F0F2288F5F8093F2289091EE288913D8CF46
S11308008091E0289091E128892B91F28CE498E280
S11308100E947B01182F90E00E942805EC01412FD3
S11308206CE478E20E94B600E091E028F091E128BF
S1130830412FBE0180E00995CE010E94C0051092AF
S1130840F228B6CF1F920F920FB60F9211240F9376
S11308501F932F933F934F935F936F937F938F9344
S11308609F93AF93BF93EF93FF93CF93DF93CDB752
S1130870DEB72597CDBFDEBF1D828091460880FF7D
S11308801DC0809144088074809344082596CDBF90
S1130890DEBFDF91CF91FF91EF91BF91AF919F9117
S11308A08F917F916F915F914F913F912F911F9104
S11308B00F910F900FBE0F901F901895BE016B5FA4
S11308C07F4F85EB98E20E949600811147C01C82FD
S11308D019821A821B820091E8281091E9280115D7
S11308E0110579F285EB98E20E949501282FAE015B
S11308F04D5F5F4FBE016F5F7F4FCE010496F801DD
S1130900099569817A816115710509F4BACF4B8122
S1130910442309F4B6CF85EB98E20E941201898141
S11309209A8120910228309103282817390738F436
S1130930209100283091012828173907B8F4BE0106
S11309406B5F7F4F85EB98E20E949600882309F441
S113095098CF8091440885FFFCCF04C0809144085F
S113096085FF8FCF8D81809342088BCF0E94C00575
S1130970E6CFFFCF1F920F920FB60F9211242F9341
S11309803F934F935F936F937F938F939F93EF93D3
S1130990FF9380E090E042C0FC01EE0FFF1FEE0FDA
S11309A0FF1FE950F74D20812223DCF4FC01EE0FF8
S11309B0FF1FEE0FFF1FEC50F74D40815181628104
S11309C02381722F7F7741505109610970487F77E5
S11309D0408351836283372F3F7723812078232BF1
S11309E02383FC01EE0FFF1FEE0FFF1FEC50F74DAA
S11309F04081518162812381722F7F77452B462B61
S1130A00472B59F4FC01FF27EE0FFF1FEE0FFF1FCA
S1130A10EC50F74D23812F77238301968430910581
S1130A200CF4BACFE091D828F091D928838581605D
S1130A308387FF91EF919F918F917F916F915F9148
S1130A404F913F912F910F900FBE0F901F901895CB
S1130A500F931F93CF93DF938230910510F482E0BC
S1130A6090E0E091FE28F091FF2820E030E0A0E043
S1130A70B0E0309719F14081518102811381481708
S1130A805907C8F08417950769F4109731F0129646
S1130A900C93129713961C9327C00093FE2810936F
S1130AA0FF2822C02115310519F04217530718F405
S1130AB09A01BD01EF01DF01F801DBCF21153105FA
S1130AC0F9F0281B390B2430310580F48A819B818D
S1130AD06115710521F0FB018283938304C0809327
S1130AE0FE289093FF28FE01329644C0FE01E20FD7
S1130AF0F31F8193919322503109288339833AC09B
S1130B002091FC283091FD28232B41F420910228C8
S1130B10309103282093FC283093FD28209100284D
S1130B20309101282115310541F42DB73EB740918C
S1130B30042850910528241B350BE091FC28F091E2
S1130B40FD28E217F307A0F42E1B3F0B28173907E3
S1130B5078F0AC014E5F5F4F2417350748F04E0F15
S1130B605F1F4093FC285093FD288193919302C00A
S1130B70E0E0F0E0CF01DF91CF911F910F91089554
S1130B80CF93DF93009709F481C0FC01329712825E
S1130B901382A091FE28B091FF28109781F4208140
S1130BA03181820F931F2091FC283091FD28281752
S1130BB0390751F5E093FC28F093FD2867C0ED0157
S1130BC020E030E0CE17DF0740F44A815B819E01CC
S1130BD041155105F1F0EA01F5CFC283D383408179
S1130BE05181840F951FC817D90759F488819981B9
S1130BF0840F951F0296808391838A819B818283CF
S1130C0093832115310529F4E093FE28F093FF28FE
S1130C103DC0E901EA83FB8349915991C40FD51F73
S1130C20EC17FD0761F480819181840F951F029672
S1130C30E90188839983828193818A839B83E0E09D
S1130C40F0E012968D919C911397009719F0FD0195
S1130C50DC01F7CF8D919C9111979D012E5F3F4F41
S1130C60820F931F2091FC283091FD282817390703
S1130C7069F4309729F41092FE281092FF2802C0DC
S1130C8012821382A093FC28B093FD28DF91CF91A8
S1130C900895FB01DC0102C001900D9241505040C7
S10B0CA0D8F70895F894FFCF82
S1130CA800000029200000002000000000000000CF
S1130CB80000000000000000000000000000000028
S1130CC800000000000000000000002000000000F8
S1130CD80000000000000000000000000000000008
S1130CE800000000000000000000000000002000D8
S1130CF800000000000000000000000000000000E8
S1130D0800000000000000000000000000000000D7
S1130D1800200000000000000000000000000000A7
S1130D2800000000000000000000000000000000B7
S1130D380000000020000000000000000000000087
S1130D480000000000000000000000000000000097
S1130D580000000000000020000000000000000067
S1130D680000000000000000000000000000000077
S10F0D780000000000000000000A000160
S9030000FC
