:100000000C9450000C946D000C946D000C946D00D9
:100010000C946D000C946D000C946D000C946D00AC
:100020000C946D000C946D000C946D000C946D009C
:100030000C946D000C946D000C946D000C946D008C
:100040000C946D000C9434020C946D000C94A0027E
:100050000C946D000C946D000C946D000C946D006C
:100060000C946D000C946D000C9437030C946D008F
:100070000C94A3030C946D000C946D000C943A0442
:100080000C946D000C94A6040C946D000C946D00FF
:100090000C946D000C943D050C946D000C94A90516
:1000A00011241FBECFEFCDBFDFE3DEBF19E2A0E01A
:1000B000B8E2EFE9F7E102C005900D92AE31B10769
:1000C000D9F729E2AEE1B9E201C01D92AE34B20720
:1000D000E1F70E94320A0C94B30B0C940000CF930A
:1000E000DF93CDB7DEB76D97CDBFDEBF8DE0EAE61B
:1000F000F7E5DE01119601900D928A95E1F780E116
:10010000E7E7F7E5DE011E9601900D928A95E1F78B
:10011000A0E6B0E0EC91E370F0E0EE0FFF1FEE0F11
:10012000FF1F21E030E02C0F3D1FE20FF31F65851C
:1001300076858785908911962C9120FF1BC0E091D0
:100140006100EE71F0E0F595E79521E030E02C0FCD
:100150003D1FE20FF31F208130E040E050E00E949D
:10016000670A20931E2930931F294093202950931A
:10017000212908C060931E2970931F29809320298C
:10018000909321296D96CDBFDEBFDF91CF91089569
:100190001F93CF93DF938091630084FF06C0E0E656
:1001A000F0E0108280818F778083C0E6D0E0898183
:1001B0008E7F18ED14BF89830E946F008C8D8F7C19
:1001C000836114BF8C8F8091630086FFFCCFDF9129
:1001D000CF911F910895FC019081292F2F71929545
:1001E0009695977081818370880F880F880F982B60
:1001F000492F50E030E0241B350B205E3F4F22306A
:100200003105B4F09F5F292F2F719295990F907E41
:1002100080818F71982B90832695269526959181C4
:100220009C7F922B9183E40FF51F638381E00895F7
:1002300080E00895FC018081282F2F71829586959A
:10024000877091819370990F990F990F892B2817B7
:1002500079F081E0820F982F9F718081807E892BB9
:100260008083E20FF11D8381FB01808381E008958B
:1002700080E00895CF92DF92EF92FF920F931F9349
:10028000CF93DF938C01EB018881282F2F7130E011
:10029000B9016D5F7F4F6C0F7D1F982F92959695DA
:1002A000977089818370880F880F880F892B90E061
:1002B000821B930B80968F719078992324F4019779
:1002C000806E9F6F0196F42E841708F4F82E8A81B1
:1002D00090E0AC01421B530B8F2D90E0481759075B
:1002E0000CF4CA01EF2CE81A6C01DD24A601C80148
:1002F0000E94AA0BBE016D5F7F4F4E2D50E0C801DA
:100300008C0D9D1D0E94AA0B8881482F4F714F0DA7
:100310004F71807EF82EF42AF882DF91CF911F91E1
:100320000F91FF90EF90DF90CF900895CF93DF93E0
:10033000FC019081892F8F719295969597702181FC
:100340002370220F220F220F292B90E0821B91098C
:100350004F968F719078992324F40197806E9F6F48
:100360000196B82FA0E026C05081252F2295269512
:1003700027703181832F8370880F880F880F822B1D
:1003800091E0980F292F2F719295990F907E5F71B0
:10039000952B9083269526952695932F9C7F922BBF
:1003A0009183EB01CA0FD11D9881EF01C80FD11DB8
:1003B0009B83AF5F2A2F30E0842FB41708F48B2F74
:1003C00090E02817390784F2DF91CF910895FC015E
:1003D0009081292F2F7192959695977081818370C6
:1003E000880F880F880F982B30E0291B3109205E79
:1003F0003F4F81E0223031050CF480E00895FC018C
:100400002081922F92959695977081818370880FA5
:10041000880F880F892B2F7190E0821B910980969D
:100420008F719078992324F40197806E9F6F0196C5
:100430000895FC012081922F9F71229526952770A7
:1004400081818370880F880F880F282B892F90E077
:10045000821B91094F968F719078992324F401970C
:10046000806E9F6F019608951F920F920FB60F92A4
:1004700011241F932F933F934F935F936F937F9319
:100480008F939F93AF93BF93CF93DF93EF93FF939C
:100490008091060880FD0AC08091040887FF06C08D
:1004A00086E098E20E94E701811119C0809104085A
:1004B000807880930408FF91EF91DF91CF91BF91F5
:1004C000AF919F918F917F916F915F914F913F91EC
:1004D0002F911F910F900FBE0F901F901895609154
:1004E000000886E098E20E94EB0080913A298F5F35
:1004F00080933A29909136298913D8CF8091222967
:1005000090912329892B91F286E098E20E94FF01C5
:10051000182F90E00E94890AEC01412F66E078E2F2
:100520000E943A01E0912229F0912329412FBE0136
:1005300080E00995CE010E94210B10923A29B6CF96
:100540001F920F920FB60F9211240F931F932F93A8
:100550003F934F935F936F937F938F939F93AF934B
:10056000BF93EF93FF93CF93DF93CDB7DEB725977C
:10057000CDBFDEBF1D828091060880FF1DC0809127
:1005800004088074809304082596CDBFDEBFDF91F8
:10059000CF91FF91EF91BF91AF919F918F917F91FB
:1005A0006F915F914F913F912F911F910F910F90FC
:1005B0000FBE0F901F901895BE016B5F7F4F82E9B1
:1005C00098E20E941A01811147C01C8219821A8286
:1005D0001B8200912A2910912B290115110579F20E
:1005E00082E998E20E941902282FAE014D5F5F4F09
:1005F000BE016F5F7F4FCE010496F80109956981B6
:100600007A816115710509F4BACF4B81442309F44D
:10061000B6CF82E998E20E94960189819A81209161
:100620000228309103282817390738F42091002830
:100630003091012828173907B8F4BE016B5F7F4F4E
:1006400082E998E20E941A01882309F498CF8091E8
:10065000040885FFFCCF04C08091040885FF8FCF7C
:100660008D81809302088BCF0E94210BE6CF1F92D1
:100670000F920FB60F9211241F932F933F934F9316
:100680005F936F937F938F939F93AF93BF93CF931A
:10069000DF93EF93FF938091260880FD0AC080913D
:1006A000240887FF06C089E298E20E94E7018111D1
:1006B00019C080912408807880932408FF91EF91DD
:1006C000DF91CF91BF91AF919F918F917F916F916A
:1006D0005F914F913F912F911F910F900FBE0F90FF
:1006E0001F9018956091200889E298E20E94EB0023
:1006F00080913B298F5F80933B2990913729891303
:10070000D8CF8091242990912529892B91F289E2D3
:1007100098E20E94FF01182F90E00E94890AEC01E4
:10072000412F69E278E20E943A01E0912429F09198
:100730002529412FBE0180E00995CE010E94210BA1
:1007400010923B29B6CF1F920F920FB60F92112431
:100750000F931F932F933F934F935F936F937F93C9
:100760008F939F93AF93BF93EF93FF93CF93DF93B9
:10077000CDB7DEB72597CDBFDEBF1D82809126089D
:1007800080FF1DC0809124088074809324082596E2
:10079000CDBFDEBFDF91CF91FF91EF91BF91AF91C0
:1007A0009F918F917F916F915F914F913F912F9189
:1007B0001F910F910F900FBE0F901F901895BE01C3
:1007C0006B5F7F4F85EB98E20E941A01811147C051
:1007D0001C8219821A821B8200912C2910912D29CA
:1007E0000115110579F285EB98E20E941902282F74
:1007F000AE014D5F5F4FBE016F5F7F4FCE0104962C
:10080000F801099569817A816115710509F4BACFFA
:100810004B81442309F4B6CF85EB98E20E94960100
:1008200089819A812091022830910328281739075D
:1008300038F4209100283091012828173907B8F49E
:10084000BE016B5F7F4F85EB98E20E941A018823FF
:1008500009F498CF8091240885FFFCCF04C08091D3
:10086000240885FF8FCF8D81809322088BCF0E9433
:10087000210BE6CF1F920F920FB60F9211241F93F8
:100880002F933F934F935F936F937F938F939F9398
:10089000AF93BF93CF93DF93EF93FF93809146087D
:1008A00080FD0AC08091440887FF06C08CE498E26E
:1008B0000E94E701811119C08091440880788093DB
:1008C0004408FF91EF91DF91CF91BF91AF919F913C
:1008D0008F917F916F915F914F913F912F911F91D8
:1008E0000F900FBE0F901F901895609140088CE4F8
:1008F00098E20E94EB0080913C298F5F80933C2915
:10090000909138298913D8CF809126299091272951
:10091000892B91F28CE498E20E94FF01182F90E05D
:100920000E94890AEC01412F6CE478E20E943A01AE
:10093000E0912629F0912729412FBE0180E00995F9
:10094000CE010E94210B10923C29B6CF1F920F922C
:100950000FB60F9211240F931F932F933F934F9332
:100960005F936F937F938F939F93AF93BF93EF9317
:10097000FF93CF93DF93CDB7DEB72597CDBFDEBF13
:100980001D828091460880FF1DC0809144088074BC
:10099000809344082596CDBFDEBFDF91CF91FF91B4
:1009A000EF91BF91AF919F918F917F916F915F91E7
:1009B0004F913F912F911F910F910F900FBE0F906C
:1009C0001F901895BE016B5F7F4F88ED98E20E94E3
:1009D0001A01811147C01C8219821A821B82009160
:1009E0002E2910912F290115110579F288ED98E231
:1009F0000E941902282FAE014D5F5F4FBE016F5F4D
:100A00007F4FCE010496F801099569817A816115BD
:100A1000710509F4BACF4B81442309F4B6CF88EDB0
:100A200098E20E94960189819A8120910228309152
:100A300003282817390738F420910028309101281D
:100A400028173907B8F4BE016B5F7F4F88ED98E235
:100A50000E941A01882309F498CF8091440885FFE9
:100A6000FCCF04C08091440885FF8FCF8D81809397
:100A700042088BCF0E94210BE6CF1F920F920FB638
:100A80000F9211241F932F933F934F935F936F9374
:100A90007F938F939F93AF93BF93CF93DF93EF9306
:100AA000FF938091660880FD0AC08091640887FFEB
:100AB00006C08FE698E20E94E701811119C080917B
:100AC0006408807880936408FF91EF91DF91CF9163
:100AD000BF91AF919F918F917F916F915F914F9156
:100AE0003F912F911F910F900FBE0F901F9018955F
:100AF000609160088FE698E20E94EB0080913D29AA
:100B00008F5F80933D29909139298913D8CF8091A7
:100B1000282990912929892B91F28FE698E20E9449
:100B2000FF01182F90E00E94890AEC01412F6FE627
:100B300078E20E943A01E0912829F0912929412F79
:100B4000BE0180E00995CE010E94210B10923D2943
:100B5000B6CF1F920F920FB60F9211240F931F93CF
:100B60002F933F934F935F936F937F938F939F93B5
:100B7000AF93BF93EF93FF93CF93DF93CDB7DEB7E0
:100B80002597CDBFDEBF1D828091660880FF1DC006
:100B9000809164088074809364082596CDBFDEBF81
:100BA000DF91CF91FF91EF91BF91AF919F918F9185
:100BB0007F916F915F914F913F912F911F910F9175
:100BC0000F900FBE0F901F901895BE016B5F7F4F67
:100BD0008BEF98E20E941A01811147C01C82198292
:100BE0001A821B82009130291091312901151105BB
:100BF00079F28BEF98E20E941902282FAE014D5F27
:100C00005F4FBE016F5F7F4FCE010496F8010995DB
:100C100069817A816115710509F4BACF4B8144234A
:100C200009F4B6CF8BEF98E20E94960189819A81F0
:100C300020910228309103282817390738F4209191
:100C400000283091012828173907B8F4BE016B5FDE
:100C50007F4F8BEF98E20E941A01882309F498CF06
:100C60008091640885FFFCCF04C08091640885FFF3
:100C70008FCF8D81809362088BCF0E94210BE6CFAE
:100C80008F92AF92CF92EF920F93CF93DF93CDB726
:100C9000DEB7A797CDBFDEBF8D8F4E8F5F8F68A366
:100CA00079A32AA30BA3ECA2CDA2AEA28FA28D8D15
:100CB000882F90E0880F991F8956984AFC018081FF
:100CC00091818C839D831E8A1F8A188E198E83E0E2
:100CD0008A8F1B8E80EE95E0FC0182818C8F81E0F3
:100CE00089838AA1883048F48AA1843018F08AA1C7
:100CF000863018F08BA1813318F081E089831DC202
:100D00008C819D81892B09F418C28DA1882309F457
:100D10004AC080911E2990911F29A0912029B0914D
:100D200021292E8D3F8D48A159A1BC01CD010E94E2
:100D3000670ADA01C901B695A79597958795880F37
:100D4000991FAA1FBB1F880F991FAA1FBB1F880FBF
:100D5000991FAA1FBB1F880F991FAA1FBB1F880FAF
:100D6000991FAA1FBB1F880F991FAA1FBB1F8E8325
:100D70009F83A887B9878FEF9FEF8A879B878A8594
:100D80009B859C0140E050E08E819F81A885B985BC
:100D900082179307A407B50710F49C01AD01C901A0
:100DA0008E8B9F8B42C080911E2990911F29A0910C
:100DB0002029B0912129880F991FAA1FBB1F880FD6
:100DC000991FAA1FBB1F880F991FAA1FBB1F2E8D1B
:100DD0003F8D48A159A1BC01CD010E94670ADA01EB
:100DE000C9018C879D87AE87BF878FEF9FEF888B68
:100DF000998B888999899C0140E050E08C859D857C
:100E0000AE85BF8582179307A407B50710F49C0130
:100E1000AD01C9018E8B9F8B8E899F89803491058E
:100E200020F480E490E08E8B9F8B8AA1877087707E
:100E30009A8D987F892B8A8F8BA182958F70837072
:100E400083708295807F9A8D9F7C892B8A8F8DA15C
:100E5000882329F08A8D8F7380648A8F03C08A8DDE
:100E60008F738A8F8EA1882399F0888D8C7F816003
:100E7000888F898D8160898F8D8D882F90E08E5C21
:100E8000964D2FA1FC0120838A8D88608A8F1AC01D
:100E9000888D8C7F888F898D8E7F898F8D8D882F0F
:100EA00090E08E5C964DFC0110828CA18695869513
:100EB000869581708170880F880F880F9A8D977F33
:100EC000892B8A8F9DA181E08927882321F0898D34
:100ED000897F8260898F80EE95E0FC0182818C8F12
:100EE0008D8D882F90E081309105B9F08230910589
:100EF0001CF4892B39F02DC082309105C1F0039785
:100F000001F127C089A983708295880F880F807CA2
:100F10009C8D9F73892B8C8F1CC089A983708370D3
:100F20008295807F9C8D9F7C892B8C8F12C089A994
:100F300083708370880F880F9C8D937F892B8C8F93
:100F400008C089A9837083709C8D9C7F892B8C8FAE
:100F50000000898D8068898F898D8064898F888D54
:100F60008068888F888D8064888F80EE95E02C8DD6
:100F7000FC012283288D8C819D81FC012583298D94
:100F80008C819D81FC0126832A8D8C819D81FC01B1
:100F900027832B8D8C819D81FC0122872E893F899F
:100FA0008C819D81FC01208731878C819D81FC0192
:100FB00013868C819D81FC0114868C819D81FC01AE
:100FC00015868C819D81FC0116861A821B82000089
:100FD00080E090E1FC018281882F90E08270992767
:100FE000892BB1F78D8D882F90E0805090409C5ECA
:100FF000FC0180818A8B000080E090E1FC0182810D
:10100000882F90E082709927892BB1F789A9882FC2
:1010100090E08C5E9F4F9C5EFC0180818B8B00007A
:1010200080E090E1FC018281882F90E08270992716
:10103000892BB1F78D8D882F90E08C5F9F4F9C5E40
:10104000FC0180818C8B000080E090E1FC018281BA
:10105000882F90E082709927892BB1F78D8D882F8A
:1010600090E0885F9F4F9C5EFC0180818D8B8DA1FD
:101070008823A1F0000080E090E1FC018281882FAC
:1010800090E082709927892BB1F78D8D882F90E0A1
:10109000845F9F4F9C5EFC0180818A838EA18823A0
:1010A000A1F0000080E090E1FC018281882F90E0B7
:1010B00082709927892BB1F78D8D882F90E0805F02
:1010C0009F4F9C5EFC0180818B838B898F3F99F1C0
:1010D0008A898F3F81F120E034E08A89882F90E06F
:1010E0005C894A81542B4B81542B4B894523880FB3
:1010F000991F82959295907F9827807F9827820FDD
:10110000931F0196FC01408320E034E08A89882FF8
:1011100090E05D894B894523880F991F82959295B0
:10112000907F9827807F9827820F931F0296FC015B
:101130004083198202C081E089838981A796CDBF4F
:10114000DEBFDF91CF910F91EF90CF90AF908F9056
:101150000895CF93DF93E82FF0E0DF01AA0FBB1FC4
:10116000A956B84ACD91DC9141155105C9F1222308
:10117000C9F1BA0183E28E9FD0018F9FB00D112477
:10118000AE56B74D8C91382F3F71829586958770FA
:1011900011969C919370990F990F990F892B381381
:1011A00012C0DA018D91BD018A834FEF420F33E205
:1011B0003E9FC0013F9F900D11248E56974D0E9477
:1011C000960181E010C033E23E9FC0013F9F900D29
:1011D0001124422F8E56974D0E94960181E003C044
:1011E00080E001C080E0DF91CF9108956115710525
:1011F00041F0E82FF0E0EE0FFF1FEE5DF64D60834B
:1012000071830895E82FF0E0EA5CF64D608308955D
:1012100080E090E001C00296833D22E09207DCF37B
:1012200080E090E0089580E090E001C001968A3669
:1012300021E09207DCF380E090E0089580E090E008
:1012400001C001968A3621E09207DCF380E090E04D
:101250000895FF920F931F93CF93DF93CDB7DEB71F
:101260002897CDBFDEBF8B01F42E88E0E7E8F7E5D5
:10127000DE01119601900D928A95E1F760E080E021
:101280000E94020980E090E00CC0E0914229F091B8
:101290004329E80FF91FD801A80FB91F2C9120830B
:1012A00001964F2D50E0841795077CF3A0E020E0D5
:1012B00030E019C0E0914229F0914329E80FF91F6D
:1012C0007081E1E0F0E0EC0FFD1FE20FF31F6081A1
:1012D000761303C02F5F3F4F02C020E030E028307C
:1012E000310509F4A1E0A11116C08417950714F384
:1012F0009C0112C0E0914429F0914529E20FF31FAF
:10130000A0914229B0914329A20FB31F4C91408371
:101310002F5F3F4F01C09C01AC014E525D4F24171F
:10132000350744F380914429909145290E9408098A
:1013300080934829909349290E941309809340295A
:10134000909341290E941E09809346299093472932
:1013500081E080933E292896CDBFDEBFDF91CF91FB
:101360001F910F91FF900895FB018081823A51F403
:10137000409146295091472922E060E081E00E9497
:10138000A90802C010923F2981E008958F92AF9280
:10139000CF92EF920F93CF93DF93CDB7DEB728971D
:1013A000CDBFDEBF88E0EFE8F7E5DE0111960190E2
:1013B0000D928A95E1F70E94C8001F92812CA12C02
:1013C000C12CE12C00E023E040E855E260E070E051
:1013D00080E00E94400669E279E080E00E94F60821
:1013E0001F9200E323E040E950ED63E070E081E00C
:1013F0000E94400661E081E00E94020964EB79E00E
:1014000081E00E94F60828E0AE014F5F5F4F60E088
:1014100080E00E94A9080F900F902896CDBFDEBFF4
:10142000DF91CF910F91EF90CF90AF908F90089573
:10143000FC0180E012C0DF011196208198E009C014
:10144000382F3227880F332314F435ED8327220FEA
:1014500091509111F5CF642FFD014FEF460F6111AF
:10146000EACF08950E94C609C0E0D0E005C060E25E
:1014700080E00E9402092196CE32D105C4F380910A
:101480003E29882389F3C0914629D091472962E0FB
:10149000CE010E94180A8B8322E0AE0163E081E056
:1014A0000E94A90880913F298823F1F210923E29D9
:1014B00080E090E008C0E0914229F0914329E80FD4
:1014C000F91F1082019682309105A8F3CDCFA1E2D9
:1014D0001A2EAA1BBB1BFD010DC0AA1FBB1FEE1FAE
:1014E000FF1FA217B307E407F50720F0A21BB30BF9
:1014F000E40BF50B661F771F881F991F1A9469F775
:1015000060957095809590959B01AC01BD01CF01D0
:1015100008950F931F93CF93DF938230910510F4BA
:1015200082E090E0E0914C29F0914D2920E030E0FC
:10153000A0E0B0E0309719F1408151810281138120
:1015400048175907C8F08417950769F4109731F0C8
:1015500012960C93129713961C9327C000934C2954
:1015600010934D2922C02115310519F04217530758
:1015700018F49A01BD01EF01DF01F801DBCF21155D
:101580003105F9F0281B390B2430310580F48A81AC
:101590009B816115710521F0FB018283938304C057
:1015A00080934C2990934D29FE01329644C0FE0150
:1015B000E20FF31F819391932250310928833983DD
:1015C0003AC020914A2930914B29232B41F4209194
:1015D00002283091032820934A2930934B292091E7
:1015E0000028309101282115310541F42DB73EB76F
:1015F0004091042850910528241B350BE0914A297D
:10160000F0914B29E217F307A0F42E1B3F0B28178C
:10161000390778F0AC014E5F5F4F2417350748F06B
:101620004E0F5F1F40934A2950934B29819391930A
:1016300002C0E0E0F0E0CF01DF91CF911F910F9168
:101640000895CF93DF93009709F481C0FC0132978E
:1016500012821382A0914C29B0914D29109781F4E8
:1016600020813181820F931F20914A2930914B298B
:101670002817390751F5E0934A29F0934B2967C0A1
:10168000ED0120E030E0CE17DF0740F44A815B81B6
:101690009E0141155105F1F0EA01F5CFC283D383D4
:1016A00040815181840F951FC817D90759F488814B
:1016B0009981840F951F0296808391838A819B81F3
:1016C000828393832115310529F4E0934C29F0930B
:1016D0004D293DC0E901EA83FB8349915991C40F2B
:1016E000D51FEC17FD0761F480819181840F951F50
:1016F0000296E90188839983828193818A839B83FF
:10170000E0E0F0E012968D919C911397009719F00C
:10171000FD01DC01F7CF8D919C9111979D012E5F0A
:101720003F4F820F931F20914A2930914B29281750
:10173000390769F4309729F410924C2910924D29F9
:1017400002C012821382A0934A29B0934B29DF91E1
:10175000CF910895FB01DC0102C001900D92415030
:0A1760005040D8F70895F894FFCF29
:10176A000204081020400000060A0C1830002D312F
:10177A0001007D00000080000000000000060280D9
:10178A00D602B069010200020020243408000820B1
:05179A00084008600892
:10179F0000004E2920000000200000000000000083
:1017AF00000000000000000000000000000000002A
:1017BF0000000000000000000000002000000000FA
:1017CF00000000000000000000000000000000000A
:1017DF0000000000000000000000000000002000DA
:1017EF0000000000000000000000000000000000EA
:1017FF0000000000000000000000000000000000DA
:10180F0000200000000000000000000000000000A9
:10181F0000000000000000000000000000000000B9
:10182F000000000020000000000000000000000089
:10183F000000000000000000000000000000000099
:10184F000000000000000020000000000000000069
:10185F000000000000000000000000000000000079
:10186F000000000000000000000020000000000049
:10187F000000000000000000000000000000000059
:10188F000000000000000000000000000020000029
:10189F000000000000000000000000000000000039
:0E18AF0000000000000000000000000000002B
:00000001FF
