:100000000C9448000C9465000C9465000C946500F9
:100010000C9465000C9465000C9465000C940D091B
:100020000C9465000C9465000C9465000C946500BC
:100030000C9465000C9465000C9465000C946500AC
:100040000C9465000C94B3010C9465000C94290287
:100050000C9465000C9465000C9441090C946500A7
:100060000C9465000C9465000C94BE020C94650021
:100070000C9434030C9465000C9465000C94C90333
:100080000C9465000C943F040C9465000C9465007E
:1000900011241FBECFEFCDBFDFE3DEBF18E2A0E02B
:1000A000B8E2EDEEF7E102C005900D92AA3DB1076E
:1000B000D9F729E2AAEDB8E201C01D92AF32B2072A
:1000C000E1F70E948E090C94E20B0C940000FC01F5
:1000D0008081918193959F71891780E041F08181A2
:1000E000DF01A80FB11D13966C93918381E00895F1
:1000F000FC0190818181891780E059F0DF01A90F0F
:10010000B11D13968C91DB018C9393959F71908315
:1001100081E00895CF93DF93FB01DC016181605E94
:100120007081671B6F7164170CF4462F6281671B27
:1001300064170CF0642F80E06623B1F0EF01239682
:10014000C70FD11D962F89918D939A95E1F7942F22
:10015000961B31F0EF01239689918D939A95E1F7E3
:10016000740F7F717083842FDF91CF910895CF93A7
:10017000DF93CDB7DEB76D97CDBFDEBF8DE0E8EC86
:10018000F7E5DE01119601900D928A95E1F780E185
:10019000E5EDF7E5DE011E9601900D928A95E1F7F7
:1001A000A0E6B0E0EC91E370F0E0EE0FFF1FEE0F81
:1001B000FF1F21E030E02C0F3D1FE20FF31F65858C
:1001C00076858785908911962C9120FF1BC0E09140
:1001D0006100EE71F0E0F595E79521E030E02C0F3D
:1001E0003D1FE20FF31F208130E040E050E00E940D
:1001F000730A2093DA283093DB284093DC2850934D
:10020000DD2808C06093DA287093DB288093DC280F
:100210009093DD286D96CDBFDEBFDF91CF9108951D
:10022000CF938091630084FF07C01092600080919B
:1002300060008F7780936000809161008E7FC8EDB1
:10024000C4BF809361000E94B70080917C008F7CC6
:100250008361C4BF80937C008091630086FD0EC0E3
:100260009FEF02C0992369F091508091630086FF4F
:10027000F9CF81E0911102C0CF91089580E0CF9134
:10028000089581E0CF910895F89481E00895FC01EC
:1002900080818FBF0895AF92BF92CF92DF92EF928D
:1002A000FF920F931F93CF93DF931F92CDB7DEB7CB
:1002B0007C016B01FC018081815E9181891B8F71C2
:1002C000142F841708F4182FF70122813181412F50
:1002D00050E0822F90E0831B9109481759078CF05A
:1002E0008181022F081B41F5812F0F90DF91CF9163
:1002F0001F910F91FF90EF90DF90CF90BF90AF9044
:100300000895112389F3F701818190E00396B601E6
:100310008E0D9F1D0E94D90B8FB789830E944401C7
:10032000882329F0F7018181810F8F718183CE01AC
:1003300001960E944701D8CF8181A02EB12C90E078
:100340000396A501B6018E0D9F1D0E94D90B412F6A
:10035000401B11F350E0B6016A0D7B1DC7010396E7
:100360000E94D90BD9CF1F920F920FB60F92112472
:100370000F931F932F933F934F935F936F937F93AD
:100380008F939F93AF93BF93CF93DF93EF93FF939D
:100390008091060880FD11C08091040887FF0DC080
:1003A000C6E0D8E2FE018081918193959F719817F4
:1003B00080E009F081E081111AC080910408807802
:1003C00080930408FF91EF91DF91CF91BF91AF919E
:1003D0009F918F917F916F915F914F913F912F915D
:1003E0001F910F910F900FBE0F901F901895609165
:1003F0000008CE010E9467008091F6288F5F8093ED
:10040000F6289091F2288913D8CF8091DE28909118
:10041000DF28892B91F2FE01C181C05E9081C91B4A
:10042000CF718C2F90E00E94B80A8C014C2F66E0AF
:1004300078E20E948A00E091DE28F091DF284C2FBC
:10044000B80180E00995C8010E94500B1092F6286F
:10045000B4CF1F920F920FB60F9211242F933F9398
:100460004F935F936F937F938F939F93AF93BF93BC
:10047000EF93FF93CF93DF93CDB7DEB72597CDBF33
:10048000DEBF1D828091060880FF1BC0809104089A
:100490008074809304082596CDBFDEBFDF91CF9195
:1004A000FF91EF91BF91AF919F918F917F916F914C
:1004B0005F914F913F912F910F900FBE0F901F9022
:1004C0001895BE016B5F7F4F8FE698E20E9478001F
:1004D000811149C01C8219821A821B82A091E628D0
:1004E000B091E728109791F2EFE6F8E28081815E03
:1004F0009181891B8F71282FAE014D5F5F4FBE0127
:100500006F5F7F4FCE010496FD01099569817A8165
:100510006115710509F4BACF4B81442309F4B6CFB4
:100520008FE698E20E944B0189819A8120910228EE
:10053000309103282817390738F42091002830918A
:10054000012828173907B8F4BE016B5F7F4F8FE68B
:1005500098E20E947800882309F498CF80910408DB
:1005600085FFFCCF04C08091040885FF8FCF8D816B
:10057000809302088BCF0E94500BE6CF1F920F9200
:100580000FB60F9211240F931F932F933F934F9306
:100590005F936F937F938F939F93AF93BF93CF930B
:1005A000DF93EF93FF938091260880FD11C0809127
:1005B000240887FF0DC0C9E2D8E2FE018081918145
:1005C00093959F71981780E009F081E081111AC01E
:1005D00080912408807880932408FF91EF91DF9127
:1005E000CF91BF91AF919F918F917F916F915F91CB
:1005F0004F913F912F911F910F910F900FBE0F9030
:100600001F90189560912008CE010E94670080918C
:10061000F7288F5F8093F7289091F3288913D8CF1C
:100620008091E0289091E128892B91F2FE01C1810F
:10063000C05E9081C91BCF718C2F90E00E94B80AD8
:100640008C014C2F69E278E20E948A00E091E02858
:10065000F091E1284C2FB80180E00995C8010E9473
:10066000500B1092F728B4CF1F920F920FB60F9233
:1006700011242F933F934F935F936F937F938F93A7
:100680009F93AF93BF93EF93FF93CF93DF93CDB738
:10069000DEB72597CDBFDEBF1D828091260880FF83
:1006A0001BC0809124088074809324082596CDBFB8
:1006B000DEBFDF91CF91FF91EF91BF91AF919F91FD
:1006C0008F917F916F915F914F913F912F910F90FB
:1006D0000FBE0F901F901895BE016B5F7F4F82E990
:1006E00098E20E947800811149C01C8219821A8206
:1006F0001B82A091E828B091E928109791F2E2E9D5
:10070000F8E28081815E9181891B8F71282FAE0173
:100710004D5F5F4FBE016F5F7F4FCE010496FD01BD
:10072000099569817A816115710509F4BACF4B8108
:10073000442309F4B6CF82E998E20E944B018981F3
:100740009A8120910228309103282817390738F41C
:10075000209100283091012828173907B8F4BE01EC
:100760006B5F7F4F82E998E20E947800882309F44A
:1007700098CF8091240885FFFCCF04C08091240885
:1007800085FF8FCF8D81809322088BCF0E94500BE5
:10079000E6CF1F920F920FB60F9211240F931F9363
:1007A0002F933F934F935F936F937F938F939F9379
:1007B000AF93BF93CF93DF93EF93FF93809146085E
:1007C00080FD11C08091440887FF0DC0CCE4D8E2C1
:1007D000FE018081918193959F71981780E009F0C7
:1007E00081E081111AC08091440880788093440888
:1007F000FF91EF91DF91CF91BF91AF919F918F9139
:100800007F916F915F914F913F912F911F910F9128
:100810000F900FBE0F901F90189560914008CE0169
:100820000E9467008091F8288F5F8093F82890914C
:10083000F4288913D8CF8091E2289091E328892B5E
:1008400091F2FE01C181C05E9081C91BCF718C2FD6
:1008500090E00E94B80A8C014C2F6CE478E20E9470
:100860008A00E091E228F091E3284C2FB80180E063
:100870000995C8010E94500B1092F828B4CF1F921E
:100880000F920FB60F9211242F933F934F935F93C4
:100890006F937F938F939F93AF93BF93EF93FF9348
:1008A000CF93DF93CDB7DEB72597CDBFDEBF1D82D7
:1008B0008091460880FF1BC080914408807480931B
:1008C00044082596CDBFDEBFDF91CF91FF91EF9118
:1008D000BF91AF919F918F917F916F915F914F9158
:1008E0003F912F910F900FBE0F901F901895BE0152
:1008F0006B5F7F4F85EB98E20E947800811149C0C1
:100900001C8219821A821B82A091EA28B091EB28DE
:10091000109791F2E5EBF8E28081815E9181891B6D
:100920008F71282FAE014D5F5F4FBE016F5F7F4F0C
:10093000CE010496FD01099569817A8161157105E1
:1009400009F4BACF4B81442309F4B6CF85EB98E282
:100950000E944B0189819A812091022830910328BD
:100960002817390738F420910028309101282817DA
:100970003907B8F4BE016B5F7F4F85EB98E20E94A8
:100980007800882309F498CF8091440885FFFCCF34
:1009900004C08091440885FF8FCF8D8180934208E9
:1009A0008BCF0E94500BE6CF8F92AF92CF92EF92F7
:1009B0000F93CF93DF93CDB7DEB7A797CDBFDEBF41
:1009C0008D8F4E8F5F8F68A379A32AA30BA3ECA210
:1009D000CDA2AEA28FA28D8D882F90E0880F991F97
:1009E0008B51984AFC01808191818C839D831E8A62
:1009F0001F8A188E198E83E08A8F1B8E80EE95E0F9
:100A0000FC0182818C8F81E089838AA1883048F43F
:100A10008AA1843018F08AA1863018F08BA1813326
:100A200018F081E089831DC28C819D81892B09F496
:100A300018C28DA1882309F44AC08091DA289091C8
:100A4000DB28A091DC28B091DD282E8D3F8D48A1B8
:100A500059A1BC01CD010E94730ADA01C901B69502
:100A6000A79597958795880F991FAA1FBB1F880F79
:100A7000991FAA1FBB1F880F991FAA1FBB1F880F92
:100A8000991FAA1FBB1F880F991FAA1FBB1F880F82
:100A9000991FAA1FBB1F8E839F83A887B9878FEFDB
:100AA0009FEF8A879B878A859B859C0140E050E069
:100AB0008E819F81A885B98582179307A407B50702
:100AC00010F49C01AD01C9018E8B9F8B42C08091B7
:100AD000DA289091DB28A091DC28B091DD28880FDE
:100AE000991FAA1FBB1F880F991FAA1FBB1F880F22
:100AF000991FAA1FBB1F2E8D3F8D48A159A1BC0174
:100B0000CD010E94730ADA01C9018C879D87AE87E7
:100B1000BF878FEF9FEF888B998B888999899C017C
:100B200040E050E08C859D85AE85BF858217930798
:100B3000A407B50710F49C01AD01C9018E8B9F8BF2
:100B40008E899F898034910520F480E490E08E8B1B
:100B50009F8B8AA1877087709A8D987F892B8A8F47
:100B60008BA182958F70837083708295807F9A8D20
:100B70009F7C892B8A8F8DA1882329F08A8D8F7382
:100B800080648A8F03C08A8D8F738A8F8EA1882399
:100B900099F0888D8C7F8160888F898D8160898FA5
:100BA0008D8D882F90E08251974D2FA1FC012083DD
:100BB0008A8D88608A8F1AC0888D8C7F888F898DF6
:100BC0008E7F898F8D8D882F90E08251974DFC010B
:100BD00010828CA186958695869581708170880F8C
:100BE000880F880F9A8D977F892B8A8F9DA181E02E
:100BF0008927882321F0898D897F8260898F80EE03
:100C000095E0FC0182818C8F8D8D882F90E0813062
:100C10009105B9F0823091051CF4892B39F02DC073
:100C200082309105C1F0039701F127C089A9837033
:100C30008295880F880F807C9C8D9F73892B8C8F69
:100C40001CC089A9837083708295807F9C8D9F7C56
:100C5000892B8C8F12C089A983708370880F880FAD
:100C60009C8D937F892B8C8F08C089A9837083709A
:100C70009C8D9C7F892B8C8F0000898D8068898F4B
:100C8000898D8064898F888D8068888F888D806445
:100C9000888F80EE95E02C8DFC012283288D8C813D
:100CA0009D81FC012583298D8C819D81FC012683FA
:100CB0002A8D8C819D81FC0127832B8D8C819D81C8
:100CC000FC0122872E893F898C819D81FC01208730
:100CD00031878C819D81FC0113868C819D81FC0173
:100CE00014868C819D81FC0115868C819D81FC017F
:100CF00016861A821B82000080E090E1FC0182814E
:100D0000882F90E082709927892BB1F78D8D882FDD
:100D100090E0805090409C5EFC0180818A8B0000B6
:100D200080E090E1FC018281882F90E08270992719
:100D3000892BB1F789A9882F90E08C5E9F4F9C5E2C
:100D4000FC0180818B8B000080E090E1FC018281BE
:100D5000882F90E082709927892BB1F78D8D882F8D
:100D600090E08C5F9F4F9C5EFC0180818C8B00002B
:100D700080E090E1FC018281882F90E082709927C9
:100D8000892BB1F78D8D882F90E0885F9F4F9C5EF7
:100D9000FC0180818D8B8DA18823A1F0000080E073
:100DA00090E1FC018281882F90E082709927892B45
:100DB000B1F78D8D882F90E0845F9F4F9C5EFC0182
:100DC00080818A838EA18823A1F0000080E090E1D9
:100DD000FC018281882F90E082709927892BB1F7DE
:100DE0008D8D882F90E0805F9F4F9C5EFC018081FD
:100DF0008B838B898F3F99F18A898F3F81F120E026
:100E000034E08A89882F90E05C894A81542B4B8199
:100E1000542B4B894523880F991F82959295907F7B
:100E20009827807F9827820F931F0196FC014083AB
:100E300020E034E08A89882F90E05D894B89452342
:100E4000880F991F82959295907F9827807F982789
:100E5000820F931F0296FC014083198202C081E039
:100E600089838981A796CDBFDEBFDF91CF910F9196
:100E7000EF90CF90AF908F900895CF93DF93A82FEE
:100E8000B0E0FD01EE0FFF1FEB51F84AC081D181A8
:100E90004115510521F1222321F1BA0183E28A9FF4
:100EA000F0018B9FF00D1124E159F74D8081918164
:100EB000981780E009F081E081110BC0DA018D9173
:100EC000BD018A834FEF420FCF010E944B0181E0A9
:100ED00009C0422FCF010E944B0181E003C080E096
:100EE00001C080E0DF91CF9108950F931F93CF93BE
:100EF000DF93F80110826115710511F0FB0110827A
:100F0000682F70E041155105A1F083E2869FE00152
:100F1000879FD00D1124CA5FD74DFE018181805E6D
:100F20009081891B8F718217D0F0F80120832111E5
:100F30001BC083E2869FE001879FD00D1124CA5F0A
:100F4000D74DFE01C181C05E9081C91BCF7181E088
:100F5000C11180E0DF91CF911F910F910895282F4B
:100F6000F8012083222329F3FA01422FBE01808158
:100F700091810E948A00E5CF6115710541F0E82F4B
:100F8000F0E0EE0FFF1FE252F74D6083718308958A
:100F90006115710541F0E82FF0E0EE0FFF1FEA51F7
:100FA000F74D608371830895E82FF0E0EE50F74D20
:100FB00060830895AC0130E080E010C0FA01E30FD7
:100FC000F11D9081892790E006C0882314F425ED57
:100FD0008227880F9F5F9830C0F33F5F361770F30A
:100FE0000895EF92FF920F931F93CF93DF93DB014E
:100FF000890195EAF901908392E0918390E89283C8
:10100000838387E0840F848320E00CC0822F90E0EC
:10101000FC013596E00FF11FED01C80FD91F888143
:1010200080832F5F241790F3C22FD0E07E01F5E07C
:10103000EF0EF11CE00EF11E642FCD010E94DA07C5
:10104000F70180832696C00FD11F86EA8883DF913F
:10105000CF911F910F91FF90EF90089581E0089537
:101060000F931F93CF93DF9300D000D0CDB7DEB79F
:1010700089836A837B834C838E010C5F1F4F2FEF24
:10108000AE014E5F5F4FBE016F5F7F4F81E00E94F8
:101090007507882379F0EA81FB8180819FE5980FAD
:1010A000923050F4823A11F4109206291092FF28DF
:1010B00081E003C080E001C080E02496CDBFDEBFA8
:1010C000DF91CF911F910F910895CF93C7E0C60F85
:1010D00029E28630920781F4462FBC0121E139E2F2
:1010E00082E10E94F1072C2F41E159E260E081E0AA
:1010F0000E943D0781E001C080E0CF910895E0E0CB
:10110000F6E08081816080831182828112828281F7
:10111000876482838381887C8383838181688383DE
:101120008481887F848308958FEC99EF8093260AC9
:101130009093270AE0E0FAE08081807F808382E05C
:10114000808380818160808381E080930A0A10928D
:10115000010A0895E0EAF0E08081887D8262808360
:101160008181836081830895E0E0F4E08081806F75
:101170008083E0E4F4E080818C60808308950196B0
:10118000E0E4F4E0448121E030E0B90102C0660F00
:10119000771F8A95E2F7CB01809584238483089595
:1011A0000196E0E4F4E0448121E030E0B90102C0BE
:1011B000660F771F8A95E2F7CB01842B848308950D
:1011C0000196E0E4F4E0448121E030E0B90102C09E
:1011D000660F771F8A95E2F7CB01842784830895F1
:1011E000E0E0F6E09085808581608923C9F78091F1
:1011F0001006909111060895E0E0F6E09681A82F80
:10120000B0E0A852B74D2C91907E922B968380939C
:10121000FE2880858160808708951F920F920FB607
:101220000F9211242F933F934F935F936F937F936C
:101230008F939F93AF93BF93EF93FF93E0E0F6E01C
:1012400082858C7F828782858160828781E080931E
:101250000B0A82E090E00E94D00880E00E94FC0827
:10126000FF91EF91BF91AF919F918F917F916F917E
:101270005F914F913F912F910F900FBE0F901F9054
:1012800018951F920F920FB60F9211242F933F9330
:101290004F935F936F937F938F939F93AF93BF937E
:1012A000CF93DF93EF93FF93C091FE28D0E00E948D
:1012B000F008CC0FDD1FC650D74D8883998382E09C
:1012C00090E00E94E0088091FE28811108C081E032
:1012D0000E94FC0882E090E00E94E0080CC0E0E080
:1012E000F6E082858C7F828782E090E00E94BF08D2
:1012F00081E080931029FF91EF91DF91CF91BF9111
:10130000AF919F918F917F916F915F914F913F919D
:101310002F910F900FBE0F901F901895CF93DF93D2
:10132000CDB7DEB72C97CDBFDEBF0E9410010E9463
:101330007F080E94AA080E94B408E0E0F4E08481DB
:10134000806F8483E0E4F4E084818C6084830E9475
:10135000940878941F92812CA12CC12CE12C00E3DD
:1013600023E040E950ED63E070E081E00E94D404A6
:1013700061E081E00E94D40760E378E081E00E94B0
:10138000BC076EE278E081E00E94C8070F90809170
:101390001029813009F090C010921029EAEFF8E28C
:1013A00020813181A8E9BAE30E94950A5B016C01B2
:1013B000092E9AE0D694C794B794A7949A95D1F73A
:1013C000902DA986BA86CB86DC86A0921A29B09287
:1013D0001B29A281B38122ED39EE4EE150E00E943B
:1013E000A40A2B013C0106E7400E01E0501E611CDF
:1013F000711C032E3EE076946794579447943A9577
:10140000D1F7302D40921C2950921D29C0900C29F3
:10141000D0900D29E0900E29F0900F29C0921E293E
:10142000D0921F29E0922029F092212929853A851E
:10143000D2010E94950A60930C2970930D29809324
:101440000E2990930F29E2E2F9E220813181428155
:101450005381B481A581C60ED71EE81EF91EC701AF
:10146000B60196958795779567955B016C016B2F13
:101470007A2F86819781E12CF12C00E010E00E9408
:10148000AF0A2083318342835383648375838683C9
:101490009783A0E0B9E2C984DA84CD92DC921197F7
:1014A00012964D925C9213978581968114968D9336
:1014B0009C9315971092FF288091FF28811167CF88
:1014C00080910029882349F066E080E099E20E943B
:1014D000650881E08093FF2803C082E08093FF28A5
:1014E0001092062954CFA1E21A2EAA1BBB1BFD01A4
:1014F0000DC0AA1FBB1FEE1FFF1FA217B307E407F3
:10150000F50720F0A21BB30BE40BF50B661F771F4A
:10151000881F991F1A9469F760957095809590952A
:101520009B01AC01BD01CF010895A29FB001B39F03
:10153000C001A39F700D811D1124911DB29F700DDC
:10154000811D1124911D08950E94950AA59F900D5B
:10155000B49F900DA49F800D911D112408952A0D14
:101560003B1D4C1D5D1D6E1D7F1D801F911F08952D
:101570000F931F93CF93DF938230910510F482E095
:1015800090E0E0912D29F0912E2920E030E0A0E0BC
:10159000B0E0309719F140815181028113814817E1
:1015A0005907C8F08417950769F4109731F012961F
:1015B0000C93129713961C9327C000932D29109318
:1015C0002E2922C02115310519F04217530718F4AE
:1015D0009A01BD01EF01DF01F801DBCF21153105D3
:1015E000F9F0281B390B2430310580F48A819B8166
:1015F0006115710521F0FB018283938304C0809300
:101600002D2990932E29FE01329644C0FE01E20F4F
:10161000F31F8193919322503109288339833AC073
:1016200020912B2930912C29232B41F42091022841
:101630003091032820932B2930932C2920910028C6
:10164000309101282115310541F42DB73EB7409165
:10165000042850910528241B350BE0912B29F0918B
:101660002C29E217F307A0F42E1B3F0B281739078C
:1016700078F0AC014E5F5F4F2417350748F04E0FEE
:101680005F1F40932B2950932C298193919302C083
:10169000E0E0F0E0CF01DF91CF911F910F9108952D
:1016A000CF93DF93009709F481C0FC013297128237
:1016B0001382A0912D29B0912E29109781F42081B9
:1016C0003181820F931F20912B2930912C292817CB
:1016D000390751F5E0932B29F0932C2967C0ED01D0
:1016E00020E030E0CE17DF0740F44A815B819E01A5
:1016F00041155105F1F0EA01F5CFC283D383408152
:101700005181840F951FC817D90759F48881998191
:10171000840F951F0296808391838A819B818283A7
:1017200093832115310529F4E0932D29F0932E2977
:101730003DC0E901EA83FB8349915991C40FD51F4C
:10174000EC17FD0761F480819181840F951F02964B
:10175000E90188839983828193818A839B83E0E076
:10176000F0E012968D919C911397009719F0FD016E
:10177000DC01F7CF8D919C9111979D012E5F3F4F1A
:10178000820F931F20912B2930912C29281739077C
:1017900069F4309729F410922D2910922E2902C055
:1017A00012821382A0932B29B0932C29DF91CF9121
:1017B0000895FB01DC0102C001900D9241505040A0
:0817C000D8F70895F894FFCF5B
:1017C8000204081020400000060A0C1830002D31D1
:1017D80001007D00000080000000000000000820DB
:0517E8000840080000AC
:1017ED0000002F2920000000200000000000000054
:1017FD0000000000000000000000000000000000DC
:10180D0000000000000000000000002000000000AB
:10181D0000000000000000000000000000000000BB
:10182D00000000000000000000000000000020008B
:10183D00000000000000000000000000000000009B
:10184D00000000000000000000000000000000008B
:10185D00002000000000000000000000000000005B
:10186D00000000000000000000000000000000006B
:10187D00000000002000000000000000000000003B
:10188D00000000000000000000000000000000004B
:10189D00000000000000002000000000000000001B
:1018AD00000000000000000000000000000000002B
:0A18BD000000000000000000000120
:00000001FF
