S01700004763634170706C69636174696F6E322E737265635A
S11300000C9450000C945A000C945A000C945A000E
S11300100C945A000C945A000C945A000C945A00F4
S11300200C945A000C945A000C945A000C945A00E4
S11300300C945A000C945A000C945A000C945A00D4
S11300400C945A000C945A000C945A000C945A00C4
S11300500C945A000C945A000C945A000C945A00B4
S11300600C945A000C945A000C945A000C945A00A4
S11300700C945A000C945A000C945A000C945A0094
S11300800C945A000C945A000C945A000C945A0084
S11300900C945A000C945A000C945A000C945A0074
S11300A011241FBECFEFCDBFDFE3DEBF0E945C0093
S11300B00C9463000C940000E0E0F4E081E08183A0
S10D00C082E08283FFCFF894FFCFA3
S9030000FC
